{
  "contractName": "Marketplace",
  "abi": [
    {
      "inputs": [],
      "payable": false,
      "stateMutability": "nonpayable",
      "type": "constructor"
    },
    {
      "anonymous": false,
      "inputs": [
        {
          "indexed": false,
          "internalType": "uint256",
          "name": "id",
          "type": "uint256"
        },
        {
          "indexed": false,
          "internalType": "string",
          "name": "offerTitle",
          "type": "string"
        },
        {
          "indexed": false,
          "internalType": "string",
          "name": "offerDescription",
          "type": "string"
        },
        {
          "indexed": false,
          "internalType": "string",
          "name": "addressLocation",
          "type": "string"
        },
        {
          "indexed": false,
          "internalType": "string",
          "name": "propertyType",
          "type": "string"
        },
        {
          "indexed": false,
          "internalType": "string",
          "name": "features",
          "type": "string"
        },
        {
          "indexed": false,
          "internalType": "string",
          "name": "imagesUrl",
          "type": "string"
        },
        {
          "indexed": false,
          "internalType": "uint256",
          "name": "price",
          "type": "uint256"
        },
        {
          "indexed": false,
          "internalType": "uint256",
          "name": "squareFootage",
          "type": "uint256"
        },
        {
          "indexed": false,
          "internalType": "address payable",
          "name": "ownerAddress",
          "type": "address"
        }
      ],
      "name": "propertyAdded",
      "type": "event"
    },
    {
      "anonymous": false,
      "inputs": [
        {
          "indexed": false,
          "internalType": "uint256",
          "name": "id",
          "type": "uint256"
        },
        {
          "indexed": false,
          "internalType": "string",
          "name": "offerTitle",
          "type": "string"
        },
        {
          "indexed": false,
          "internalType": "string",
          "name": "offerDescription",
          "type": "string"
        },
        {
          "indexed": false,
          "internalType": "string",
          "name": "addressLocation",
          "type": "string"
        },
        {
          "indexed": false,
          "internalType": "string",
          "name": "propertyType",
          "type": "string"
        },
        {
          "indexed": false,
          "internalType": "string",
          "name": "features",
          "type": "string"
        },
        {
          "indexed": false,
          "internalType": "string",
          "name": "imagesUrl",
          "type": "string"
        },
        {
          "indexed": false,
          "internalType": "uint256",
          "name": "price",
          "type": "uint256"
        },
        {
          "indexed": false,
          "internalType": "uint256",
          "name": "squareFootage",
          "type": "uint256"
        },
        {
          "indexed": false,
          "internalType": "address payable",
          "name": "ownerAddress",
          "type": "address"
        }
      ],
      "name": "propertyBought",
      "type": "event"
    },
    {
      "constant": true,
      "inputs": [],
      "name": "offerCount",
      "outputs": [
        {
          "internalType": "uint256",
          "name": "",
          "type": "uint256"
        }
      ],
      "payable": false,
      "stateMutability": "view",
      "type": "function"
    },
    {
      "constant": true,
      "inputs": [
        {
          "internalType": "uint256",
          "name": "",
          "type": "uint256"
        }
      ],
      "name": "properties",
      "outputs": [
        {
          "internalType": "uint256",
          "name": "id",
          "type": "uint256"
        },
        {
          "internalType": "string",
          "name": "offerTitle",
          "type": "string"
        },
        {
          "internalType": "string",
          "name": "offerDescription",
          "type": "string"
        },
        {
          "internalType": "string",
          "name": "addressLocation",
          "type": "string"
        },
        {
          "internalType": "string",
          "name": "propertyType",
          "type": "string"
        },
        {
          "internalType": "string",
          "name": "features",
          "type": "string"
        },
        {
          "internalType": "string",
          "name": "imagesUrl",
          "type": "string"
        },
        {
          "internalType": "uint256",
          "name": "price",
          "type": "uint256"
        },
        {
          "internalType": "uint256",
          "name": "squareFootage",
          "type": "uint256"
        },
        {
          "internalType": "address payable",
          "name": "ownerAddress",
          "type": "address"
        }
      ],
      "payable": false,
      "stateMutability": "view",
      "type": "function"
    },
    {
      "constant": false,
      "inputs": [
        {
          "internalType": "string",
          "name": "_offerTitle",
          "type": "string"
        },
        {
          "internalType": "string",
          "name": "_offerDescription",
          "type": "string"
        },
        {
          "internalType": "string",
          "name": "addressLocation",
          "type": "string"
        },
        {
          "internalType": "string",
          "name": "_propertyType",
          "type": "string"
        },
        {
          "internalType": "string",
          "name": "_features",
          "type": "string"
        },
        {
          "internalType": "string",
          "name": "_imagesUrl",
          "type": "string"
        },
        {
          "internalType": "uint256",
          "name": "_price",
          "type": "uint256"
        },
        {
          "internalType": "uint256",
          "name": "_squareFootage",
          "type": "uint256"
        }
      ],
      "name": "sellProperty",
      "outputs": [],
      "payable": false,
      "stateMutability": "nonpayable",
      "type": "function"
    },
    {
      "constant": false,
      "inputs": [
        {
          "internalType": "uint256",
          "name": "_propertyId",
          "type": "uint256"
        }
      ],
      "name": "buyProperty",
      "outputs": [],
      "payable": true,
      "stateMutability": "payable",
      "type": "function"
    },
    {
      "constant": true,
      "inputs": [],
      "name": "getOfferCount",
      "outputs": [
        {
          "internalType": "uint256",
          "name": "",
          "type": "uint256"
        }
      ],
      "payable": false,
      "stateMutability": "view",
      "type": "function"
    },
    {
      "constant": true,
      "inputs": [],
      "name": "getMyProperties",
      "outputs": [
        {
          "components": [
            {
              "internalType": "uint256",
              "name": "id",
              "type": "uint256"
            },
            {
              "internalType": "string",
              "name": "offerTitle",
              "type": "string"
            },
            {
              "internalType": "string",
              "name": "offerDescription",
              "type": "string"
            },
            {
              "internalType": "string",
              "name": "addressLocation",
              "type": "string"
            },
            {
              "internalType": "string",
              "name": "propertyType",
              "type": "string"
            },
            {
              "internalType": "string",
              "name": "features",
              "type": "string"
            },
            {
              "internalType": "string",
              "name": "imagesUrl",
              "type": "string"
            },
            {
              "internalType": "uint256",
              "name": "price",
              "type": "uint256"
            },
            {
              "internalType": "uint256",
              "name": "squareFootage",
              "type": "uint256"
            },
            {
              "internalType": "address payable",
              "name": "ownerAddress",
              "type": "address"
            }
          ],
          "internalType": "struct Marketplace.Property[]",
          "name": "",
          "type": "tuple[]"
        }
      ],
      "payable": false,
      "stateMutability": "view",
      "type": "function"
    },
    {
      "constant": true,
      "inputs": [
        {
          "internalType": "uint256",
          "name": "_id",
          "type": "uint256"
        }
      ],
      "name": "getProperty",
      "outputs": [
        {
          "components": [
            {
              "internalType": "uint256",
              "name": "id",
              "type": "uint256"
            },
            {
              "internalType": "string",
              "name": "offerTitle",
              "type": "string"
            },
            {
              "internalType": "string",
              "name": "offerDescription",
              "type": "string"
            },
            {
              "internalType": "string",
              "name": "addressLocation",
              "type": "string"
            },
            {
              "internalType": "string",
              "name": "propertyType",
              "type": "string"
            },
            {
              "internalType": "string",
              "name": "features",
              "type": "string"
            },
            {
              "internalType": "string",
              "name": "imagesUrl",
              "type": "string"
            },
            {
              "internalType": "uint256",
              "name": "price",
              "type": "uint256"
            },
            {
              "internalType": "uint256",
              "name": "squareFootage",
              "type": "uint256"
            },
            {
              "internalType": "address payable",
              "name": "ownerAddress",
              "type": "address"
            }
          ],
          "internalType": "struct Marketplace.Property",
          "name": "",
          "type": "tuple"
        }
      ],
      "payable": false,
      "stateMutability": "view",
      "type": "function"
    },
    {
      "constant": true,
      "inputs": [],
      "name": "getProperties",
      "outputs": [
        {
          "components": [
            {
              "internalType": "uint256",
              "name": "id",
              "type": "uint256"
            },
            {
              "internalType": "string",
              "name": "offerTitle",
              "type": "string"
            },
            {
              "internalType": "string",
              "name": "offerDescription",
              "type": "string"
            },
            {
              "internalType": "string",
              "name": "addressLocation",
              "type": "string"
            },
            {
              "internalType": "string",
              "name": "propertyType",
              "type": "string"
            },
            {
              "internalType": "string",
              "name": "features",
              "type": "string"
            },
            {
              "internalType": "string",
              "name": "imagesUrl",
              "type": "string"
            },
            {
              "internalType": "uint256",
              "name": "price",
              "type": "uint256"
            },
            {
              "internalType": "uint256",
              "name": "squareFootage",
              "type": "uint256"
            },
            {
              "internalType": "address payable",
              "name": "ownerAddress",
              "type": "address"
            }
          ],
          "internalType": "struct Marketplace.Property[]",
          "name": "",
          "type": "tuple[]"
        }
      ],
      "payable": false,
      "stateMutability": "view",
      "type": "function"
    }
  ],
  "bytecode": "0x608060405234801561001057600080fd5b506000808190555061279b806100276000396000f3fe60806040526004361061007b5760003560e01c8063cdbecf6e1161004e578063cdbecf6e1461012f578063d048db3714610158578063ec0cfd0b14610183578063f7b10808146101ae5761007b565b80631115c24d1461008057806332665ffb146100ab578063397f7952146100e85780636fa830a614610113575b600080fd5b34801561008c57600080fd5b506100956101f4565b6040516100a29190612441565b60405180910390f35b3480156100b757600080fd5b506100d260048036036100cd919081019061206a565b6101fa565b6040516100df919061241f565b60405180910390f35b3480156100f457600080fd5b506100fd610674565b60405161010a91906123fd565b60405180910390f35b61012d6004803603610128919081019061206a565b610bc3565b005b34801561013b57600080fd5b5061015660048036036101519190810190611f28565b6111f7565b005b34801561016457600080fd5b5061016d61140f565b60405161017a9190612441565b60405180910390f35b34801561018f57600080fd5b50610198611418565b6040516101a591906123fd565b60405180910390f35b3480156101ba57600080fd5b506101d560048036036101d0919081019061206a565b6118fc565b6040516101eb9a99989796959493929190612522565b60405180910390f35b60005481565b610202611d00565b61020a611d00565b600160008481526020019081526020016000206040518061014001604052908160008201548152602001600182018054600181600116156101000203166002900480601f0160208091040260200160405190810160405280929190818152602001828054600181600116156101000203166002900480156102cc5780601f106102a1576101008083540402835291602001916102cc565b820191906000526020600020905b8154815290600101906020018083116102af57829003601f168201915b50505050508152602001600282018054600181600116156101000203166002900480601f01602080910402602001604051908101604052809291908181526020018280546001816001161561010002031660029004801561036e5780601f106103435761010080835404028352916020019161036e565b820191906000526020600020905b81548152906001019060200180831161035157829003601f168201915b50505050508152602001600382018054600181600116156101000203166002900480601f0160208091040260200160405190810160405280929190818152602001828054600181600116156101000203166002900480156104105780601f106103e557610100808354040283529160200191610410565b820191906000526020600020905b8154815290600101906020018083116103f357829003601f168201915b50505050508152602001600482018054600181600116156101000203166002900480601f0160208091040260200160405190810160405280929190818152602001828054600181600116156101000203166002900480156104b25780601f10610487576101008083540402835291602001916104b2565b820191906000526020600020905b81548152906001019060200180831161049557829003601f168201915b50505050508152602001600582018054600181600116156101000203166002900480601f0160208091040260200160405190810160405280929190818152602001828054600181600116156101000203166002900480156105545780601f1061052957610100808354040283529160200191610554565b820191906000526020600020905b81548152906001019060200180831161053757829003601f168201915b50505050508152602001600682018054600181600116156101000203166002900480601f0160208091040260200160405190810160405280929190818152602001828054600181600116156101000203166002900480156105f65780601f106105cb576101008083540402835291602001916105f6565b820191906000526020600020905b8154815290600101906020018083116105d957829003601f168201915b5050505050815260200160078201548152602001600882015481526020016009820160009054906101000a900473ffffffffffffffffffffffffffffffffffffffff1673ffffffffffffffffffffffffffffffffffffffff1673ffffffffffffffffffffffffffffffffffffffff1681525050905080915050919050565b6060806001600054016040519080825280602002602001820160405280156106b657816020015b6106a3611d69565b81526020019060019003908161069b5790505b5090506000600190505b600160005401811015610bbb573373ffffffffffffffffffffffffffffffffffffffff166001600083815260200190815260200160002060090160009054906101000a900473ffffffffffffffffffffffffffffffffffffffff1673ffffffffffffffffffffffffffffffffffffffff161415610bae57600160008281526020019081526020016000206040518061014001604052908160008201548152602001600182018054600181600116156101000203166002900480601f0160208091040260200160405190810160405280929190818152602001828054600181600116156101000203166002900480156107f95780601f106107ce576101008083540402835291602001916107f9565b820191906000526020600020905b8154815290600101906020018083116107dc57829003601f168201915b50505050508152602001600282018054600181600116156101000203166002900480601f01602080910402602001604051908101604052809291908181526020018280546001816001161561010002031660029004801561089b5780601f106108705761010080835404028352916020019161089b565b820191906000526020600020905b81548152906001019060200180831161087e57829003601f168201915b50505050508152602001600382018054600181600116156101000203166002900480601f01602080910402602001604051908101604052809291908181526020018280546001816001161561010002031660029004801561093d5780601f106109125761010080835404028352916020019161093d565b820191906000526020600020905b81548152906001019060200180831161092057829003601f168201915b50505050508152602001600482018054600181600116156101000203166002900480601f0160208091040260200160405190810160405280929190818152602001828054600181600116156101000203166002900480156109df5780601f106109b4576101008083540402835291602001916109df565b820191906000526020600020905b8154815290600101906020018083116109c257829003601f168201915b50505050508152602001600582018054600181600116156101000203166002900480601f016020809104026020016040519081016040528092919081815260200182805460018160011615610100020316600290048015610a815780601f10610a5657610100808354040283529160200191610a81565b820191906000526020600020905b815481529060010190602001808311610a6457829003601f168201915b50505050508152602001600682018054600181600116156101000203166002900480601f016020809104026020016040519081016040528092919081815260200182805460018160011615610100020316600290048015610b235780601f10610af857610100808354040283529160200191610b23565b820191906000526020600020905b815481529060010190602001808311610b0657829003601f168201915b5050505050815260200160078201548152602001600882015481526020016009820160009054906101000a900473ffffffffffffffffffffffffffffffffffffffff1673ffffffffffffffffffffffffffffffffffffffff1673ffffffffffffffffffffffffffffffffffffffff1681525050828281518110610ba257fe5b60200260200101819052505b80806001019150506106c0565b508091505090565b610bcb611d00565b600160008381526020019081526020016000206040518061014001604052908160008201548152602001600182018054600181600116156101000203166002900480601f016020809104026020016040519081016040528092919081815260200182805460018160011615610100020316600290048015610c8d5780601f10610c6257610100808354040283529160200191610c8d565b820191906000526020600020905b815481529060010190602001808311610c7057829003601f168201915b50505050508152602001600282018054600181600116156101000203166002900480601f016020809104026020016040519081016040528092919081815260200182805460018160011615610100020316600290048015610d2f5780601f10610d0457610100808354040283529160200191610d2f565b820191906000526020600020905b815481529060010190602001808311610d1257829003601f168201915b50505050508152602001600382018054600181600116156101000203166002900480601f016020809104026020016040519081016040528092919081815260200182805460018160011615610100020316600290048015610dd15780601f10610da657610100808354040283529160200191610dd1565b820191906000526020600020905b815481529060010190602001808311610db457829003601f168201915b50505050508152602001600482018054600181600116156101000203166002900480601f016020809104026020016040519081016040528092919081815260200182805460018160011615610100020316600290048015610e735780601f10610e4857610100808354040283529160200191610e73565b820191906000526020600020905b815481529060010190602001808311610e5657829003601f168201915b50505050508152602001600582018054600181600116156101000203166002900480601f016020809104026020016040519081016040528092919081815260200182805460018160011615610100020316600290048015610f155780601f10610eea57610100808354040283529160200191610f15565b820191906000526020600020905b815481529060010190602001808311610ef857829003601f168201915b50505050508152602001600682018054600181600116156101000203166002900480601f016020809104026020016040519081016040528092919081815260200182805460018160011615610100020316600290048015610fb75780601f10610f8c57610100808354040283529160200191610fb7565b820191906000526020600020905b815481529060010190602001808311610f9a57829003601f168201915b5050505050815260200160078201548152602001600882015481526020016009820160009054906101000a900473ffffffffffffffffffffffffffffffffffffffff1673ffffffffffffffffffffffffffffffffffffffff1673ffffffffffffffffffffffffffffffffffffffff168152505090508060e0015134101561103d57600080fd5b80610120015173ffffffffffffffffffffffffffffffffffffffff166108fc349081150290604051600060405180830381858888f19350505050158015611088573d6000803e3d6000fd5b503381610120019073ffffffffffffffffffffffffffffffffffffffff16908173ffffffffffffffffffffffffffffffffffffffff16815250507fa5a5545489d8a9a4c943f1329284c008807f0b4f63ab9d72d2d4ab60c93374438282602001518360400151846060015185608001518660a001518760c001518860e00151896101000151336040516111249a99989796959493929190612522565b60405180910390a1600160008381526020019081526020016000206000808201600090556001820160006111589190611dd2565b6002820160006111689190611dd2565b6003820160006111789190611dd2565b6004820160006111889190611dd2565b6005820160006111989190611dd2565b6006820160006111a89190611dd2565b600782016000905560088201600090556009820160006101000a81549073ffffffffffffffffffffffffffffffffffffffff021916905550506000808154809291906001900391905055505050565b6000821161120457600080fd5b6000811161121157600080fd5b600083511161121f57600080fd5b600080815480929190600101919050555060405180610140016040528060005481526020018981526020018881526020018781526020018681526020018581526020018481526020018381526020018281526020013373ffffffffffffffffffffffffffffffffffffffff1681525060016000805481526020019081526020016000206000820151816000015560208201518160010190805190602001906112c8929190611e1a565b5060408201518160020190805190602001906112e5929190611e1a565b506060820151816003019080519060200190611302929190611e1a565b50608082015181600401908051906020019061131f929190611e1a565b5060a082015181600501908051906020019061133c929190611e1a565b5060c0820151816006019080519060200190611359929190611e1a565b5060e0820151816007015561010082015181600801556101208201518160090160006101000a81548173ffffffffffffffffffffffffffffffffffffffff021916908373ffffffffffffffffffffffffffffffffffffffff1602179055509050507f289604a59db35328d801b48a1330af28504db64fc42f0cad768fd4bebf5849916000548989898989898989336040516113fd9a9998979695949392919061245c565b60405180910390a15050505050505050565b60008054905090565b60608060016000540160405190808252806020026020018201604052801561145a57816020015b611447611d69565b81526020019060019003908161143f5790505b5090506000600190505b6001600054018110156118f457600160008281526020019081526020016000206040518061014001604052908160008201548152602001600182018054600181600116156101000203166002900480601f0160208091040260200160405190810160405280929190818152602001828054600181600116156101000203166002900480156115335780601f1061150857610100808354040283529160200191611533565b820191906000526020600020905b81548152906001019060200180831161151657829003601f168201915b50505050508152602001600282018054600181600116156101000203166002900480601f0160208091040260200160405190810160405280929190818152602001828054600181600116156101000203166002900480156115d55780601f106115aa576101008083540402835291602001916115d5565b820191906000526020600020905b8154815290600101906020018083116115b857829003601f168201915b50505050508152602001600382018054600181600116156101000203166002900480601f0160208091040260200160405190810160405280929190818152602001828054600181600116156101000203166002900480156116775780601f1061164c57610100808354040283529160200191611677565b820191906000526020600020905b81548152906001019060200180831161165a57829003601f168201915b50505050508152602001600482018054600181600116156101000203166002900480601f0160208091040260200160405190810160405280929190818152602001828054600181600116156101000203166002900480156117195780601f106116ee57610100808354040283529160200191611719565b820191906000526020600020905b8154815290600101906020018083116116fc57829003601f168201915b50505050508152602001600582018054600181600116156101000203166002900480601f0160208091040260200160405190810160405280929190818152602001828054600181600116156101000203166002900480156117bb5780601f10611790576101008083540402835291602001916117bb565b820191906000526020600020905b81548152906001019060200180831161179e57829003601f168201915b50505050508152602001600682018054600181600116156101000203166002900480601f01602080910402602001604051908101604052809291908181526020018280546001816001161561010002031660029004801561185d5780601f106118325761010080835404028352916020019161185d565b820191906000526020600020905b81548152906001019060200180831161184057829003601f168201915b5050505050815260200160078201548152602001600882015481526020016009820160009054906101000a900473ffffffffffffffffffffffffffffffffffffffff1673ffffffffffffffffffffffffffffffffffffffff1673ffffffffffffffffffffffffffffffffffffffff16815250508282815181106118dc57fe5b60200260200101819052508080600101915050611464565b508091505090565b6001602052806000526040600020600091509050806000015490806001018054600181600116156101000203166002900480601f0160208091040260200160405190810160405280929190818152602001828054600181600116156101000203166002900480156119ae5780601f10611983576101008083540402835291602001916119ae565b820191906000526020600020905b81548152906001019060200180831161199157829003601f168201915b505050505090806002018054600181600116156101000203166002900480601f016020809104026020016040519081016040528092919081815260200182805460018160011615610100020316600290048015611a4c5780601f10611a2157610100808354040283529160200191611a4c565b820191906000526020600020905b815481529060010190602001808311611a2f57829003601f168201915b505050505090806003018054600181600116156101000203166002900480601f016020809104026020016040519081016040528092919081815260200182805460018160011615610100020316600290048015611aea5780601f10611abf57610100808354040283529160200191611aea565b820191906000526020600020905b815481529060010190602001808311611acd57829003601f168201915b505050505090806004018054600181600116156101000203166002900480601f016020809104026020016040519081016040528092919081815260200182805460018160011615610100020316600290048015611b885780601f10611b5d57610100808354040283529160200191611b88565b820191906000526020600020905b815481529060010190602001808311611b6b57829003601f168201915b505050505090806005018054600181600116156101000203166002900480601f016020809104026020016040519081016040528092919081815260200182805460018160011615610100020316600290048015611c265780601f10611bfb57610100808354040283529160200191611c26565b820191906000526020600020905b815481529060010190602001808311611c0957829003601f168201915b505050505090806006018054600181600116156101000203166002900480601f016020809104026020016040519081016040528092919081815260200182805460018160011615610100020316600290048015611cc45780601f10611c9957610100808354040283529160200191611cc4565b820191906000526020600020905b815481529060010190602001808311611ca757829003601f168201915b5050505050908060070154908060080154908060090160009054906101000a900473ffffffffffffffffffffffffffffffffffffffff1690508a565b604051806101400160405280600081526020016060815260200160608152602001606081526020016060815260200160608152602001606081526020016000815260200160008152602001600073ffffffffffffffffffffffffffffffffffffffff1681525090565b604051806101400160405280600081526020016060815260200160608152602001606081526020016060815260200160608152602001606081526020016000815260200160008152602001600073ffffffffffffffffffffffffffffffffffffffff1681525090565b50805460018160011615610100020316600290046000825580601f10611df85750611e17565b601f016020900490600052602060002090810190611e169190611e9a565b5b50565b828054600181600116156101000203166002900490600052602060002090601f016020900481019282601f10611e5b57805160ff1916838001178555611e89565b82800160010185558215611e89579182015b82811115611e88578251825591602001919060010190611e6d565b5b509050611e969190611e9a565b5090565b611ebc91905b80821115611eb8576000816000905550600101611ea0565b5090565b90565b600082601f830112611ed057600080fd5b8135611ee3611ede82612615565b6125e8565b91508082526020830160208301858383011115611eff57600080fd5b611f0a8382846126ee565b50505092915050565b600081359050611f2281612741565b92915050565b600080600080600080600080610100898b031215611f4557600080fd5b600089013567ffffffffffffffff811115611f5f57600080fd5b611f6b8b828c01611ebf565b985050602089013567ffffffffffffffff811115611f8857600080fd5b611f948b828c01611ebf565b975050604089013567ffffffffffffffff811115611fb157600080fd5b611fbd8b828c01611ebf565b965050606089013567ffffffffffffffff811115611fda57600080fd5b611fe68b828c01611ebf565b955050608089013567ffffffffffffffff81111561200357600080fd5b61200f8b828c01611ebf565b94505060a089013567ffffffffffffffff81111561202c57600080fd5b6120388b828c01611ebf565b93505060c06120498b828c01611f13565b92505060e061205a8b828c01611f13565b9150509295985092959890939650565b60006020828403121561207c57600080fd5b600061208a84828501611f13565b91505092915050565b600061209f83836122e2565b905092915050565b6120b0816126b2565b82525050565b6120bf816126b2565b82525050565b60006120d082612651565b6120da818561267f565b9350836020820285016120ec85612641565b8060005b8581101561212857848403895281516121098582612093565b945061211483612672565b925060208a019950506001810190506120f0565b50829750879550505050505092915050565b600061214582612667565b61214f81856126a1565b935061215f8185602086016126fd565b61216881612730565b840191505092915050565b600061217e8261265c565b6121888185612690565b93506121988185602086016126fd565b6121a181612730565b840191505092915050565b60006121b78261265c565b6121c181856126a1565b93506121d18185602086016126fd565b6121da81612730565b840191505092915050565b6000610140830160008301516121fe60008601826123df565b50602083015184820360208601526122168282612173565b915050604083015184820360408601526122308282612173565b9150506060830151848203606086015261224a8282612173565b915050608083015184820360808601526122648282612173565b91505060a083015184820360a086015261227e8282612173565b91505060c083015184820360c08601526122988282612173565b91505060e08301516122ad60e08601826123df565b506101008301516122c26101008601826123df565b506101208301516122d76101208601826120a7565b508091505092915050565b6000610140830160008301516122fb60008601826123df565b50602083015184820360208601526123138282612173565b9150506040830151848203604086015261232d8282612173565b915050606083015184820360608601526123478282612173565b915050608083015184820360808601526123618282612173565b91505060a083015184820360a086015261237b8282612173565b91505060c083015184820360c08601526123958282612173565b91505060e08301516123aa60e08601826123df565b506101008301516123bf6101008601826123df565b506101208301516123d46101208601826120a7565b508091505092915050565b6123e8816126e4565b82525050565b6123f7816126e4565b82525050565b6000602082019050818103600083015261241781846120c5565b905092915050565b6000602082019050818103600083015261243981846121e5565b905092915050565b600060208201905061245660008301846123ee565b92915050565b600061014082019050612472600083018d6123ee565b8181036020830152612484818c61213a565b90508181036040830152612498818b61213a565b905081810360608301526124ac818a61213a565b905081810360808301526124c0818961213a565b905081810360a08301526124d4818861213a565b905081810360c08301526124e8818761213a565b90506124f760e08301866123ee565b6125056101008301856123ee565b6125136101208301846120b6565b9b9a5050505050505050505050565b600061014082019050612538600083018d6123ee565b818103602083015261254a818c6121ac565b9050818103604083015261255e818b6121ac565b90508181036060830152612572818a6121ac565b9050818103608083015261258681896121ac565b905081810360a083015261259a81886121ac565b905081810360c08301526125ae81876121ac565b90506125bd60e08301866123ee565b6125cb6101008301856123ee565b6125d96101208301846120b6565b9b9a5050505050505050505050565b6000604051905081810181811067ffffffffffffffff8211171561260b57600080fd5b8060405250919050565b600067ffffffffffffffff82111561262c57600080fd5b601f19601f8301169050602081019050919050565b6000819050602082019050919050565b600081519050919050565b600081519050919050565b600081519050919050565b6000602082019050919050565b600082825260208201905092915050565b600082825260208201905092915050565b600082825260208201905092915050565b60006126bd826126c4565b9050919050565b600073ffffffffffffffffffffffffffffffffffffffff82169050919050565b6000819050919050565b82818337600083830152505050565b60005b8381101561271b578082015181840152602081019050612700565b8381111561272a576000848401525b50505050565b6000601f19601f8301169050919050565b61274a816126e4565b811461275557600080fd5b5056fea365627a7a723158207e6321886da57017f2341b17d3a8a31074e286ba18128b5623c6305d9a69bb936c6578706572696d656e74616cf564736f6c63430005100040",
  "source": "pragma solidity >=0.4.22 <0.9.0;\npragma experimental ABIEncoderV2;\n\ncontract Marketplace {\n\n    uint256 public offerCount;\n\n    struct Property {\n        uint id;\n        string offerTitle;\n        string offerDescription;\n        string addressLocation;\n        string propertyType;\n        string features;\n        string imagesUrl;\n\n        uint256 price;\n        uint256 squareFootage;\n\n        address payable ownerAddress;\n    }\n\n    mapping(uint => Property) public properties;\n\n    event propertyAdded(\n        uint id,\n        string offerTitle,\n        string offerDescription,\n        string addressLocation,\n        string propertyType,\n        string features,\n        string imagesUrl,\n        uint256 price,\n        uint256 squareFootage,\n        address payable ownerAddress\n    );\n\n    event propertyBought(\n        uint id,\n        string offerTitle,\n        string offerDescription,\n        string addressLocation,\n        string propertyType,\n        string features,\n        string imagesUrl,\n        uint256 price,\n        uint256 squareFootage,\n        address payable ownerAddress\n    );\n\n    constructor() public {\n        offerCount = 0;\n    }\n\n    function sellProperty(\n        string memory _offerTitle,\n        string memory _offerDescription,\n        string memory addressLocation,\n        string memory _propertyType,\n        string memory _features,\n        string memory _imagesUrl,\n        uint256 _price,\n        uint256 _squareFootage\n    ) public {\n        require(_price > 0);\n        require(_squareFootage > 0);\n        require(bytes(_imagesUrl).length > 0);\n\n        offerCount++;\n\n        properties[offerCount] = Property(\n            offerCount,\n            _offerTitle,\n            _offerDescription,\n            addressLocation,\n            _propertyType,\n            _features,\n            _imagesUrl,\n            _price,\n            _squareFootage,\n            msg.sender\n        );\n        emit propertyAdded(\n            offerCount,\n            _offerTitle,\n            _offerDescription,\n            addressLocation,\n            _propertyType,\n            _features,\n            _imagesUrl,\n            _price,\n            _squareFootage,\n            msg.sender\n        );\n    }\n\n    function buyProperty(uint _propertyId) public payable {\n        Property memory _property = properties[_propertyId];\n        require(msg.value >= _property.price);\n        address(_property.ownerAddress).transfer(msg.value);\n        _property.ownerAddress = msg.sender;\n        emit propertyBought(\n            _propertyId,\n            _property.offerTitle,\n            _property.offerDescription,\n            _property.addressLocation,\n            _property.propertyType,\n            _property.features,\n            _property.imagesUrl,\n            _property.price,\n            _property.squareFootage,\n            msg.sender\n        );\n        delete properties[_propertyId];\n        offerCount--;\n    }\n\n    function getOfferCount() public view returns (uint256) {\n        return offerCount;\n    }\n\n    function getMyProperties() public view returns (Property[] memory) {\n        Property[] memory myProps = new Property[](offerCount + 1);\n\n        for(uint i = 1; i < offerCount + 1; i++) {\n            if (properties[i].ownerAddress == msg.sender) {\n                myProps[i] = properties[i];\n            }\n        }\n\n        return myProps;\n    }\n\n    function getProperty(uint _id) public view returns (Property memory) {\n        Property memory prop = properties[_id];\n        return prop;\n    }\n\n    function getProperties() public view returns (Property[] memory) {\n        Property[] memory props = new Property[](offerCount + 1);\n\n        for(uint i = 1; i < offerCount + 1; i++) {\n            props[i] = properties[i];\n        }\n\n        return (props);\n    }\n\n}\n",
  "sourcePath": "/Users/thomfdv/Documents/school/5al-s1/blockchain/Blockchain-ETH-Trading-Dapp/contracts/Marketplace.sol",
  "compiler": {
    "name": "solc",
    "version": "0.5.16+commit.9c3226ce.Emscripten.clang"
  },
  "schemaVersion": "3.3.3",
  "updatedAt": "2021-01-24T15:05:26.219Z",
  "networkType": "ethereum",
  "devdoc": {
    "methods": {}
  },
  "userdoc": {
    "methods": {}
  }
}