{
  "contractName": "Marketplace",
  "abi": [
    {
      "inputs": [],
      "payable": false,
      "stateMutability": "nonpayable",
      "type": "constructor"
    },
    {
      "anonymous": false,
      "inputs": [
        {
          "indexed": false,
          "internalType": "uint256",
          "name": "id",
          "type": "uint256"
        },
        {
          "indexed": false,
          "internalType": "string",
          "name": "offerTitle",
          "type": "string"
        },
        {
          "indexed": false,
          "internalType": "string",
          "name": "offerDescription",
          "type": "string"
        },
        {
          "indexed": false,
          "internalType": "string",
          "name": "addressLocation",
          "type": "string"
        },
        {
          "indexed": false,
          "internalType": "string",
          "name": "propertyType",
          "type": "string"
        },
        {
          "indexed": false,
          "internalType": "string",
          "name": "features",
          "type": "string"
        },
        {
          "indexed": false,
          "internalType": "uint16",
          "name": "price",
          "type": "uint16"
        },
        {
          "indexed": false,
          "internalType": "uint16",
          "name": "squareFootage",
          "type": "uint16"
        },
        {
          "indexed": false,
          "internalType": "address payable",
          "name": "ownerAddress",
          "type": "address"
        }
      ],
      "name": "propertyAdded",
      "type": "event"
    },
    {
      "anonymous": false,
      "inputs": [
        {
          "indexed": false,
          "internalType": "uint256",
          "name": "id",
          "type": "uint256"
        },
        {
          "indexed": false,
          "internalType": "string",
          "name": "offerTitle",
          "type": "string"
        },
        {
          "indexed": false,
          "internalType": "string",
          "name": "offerDescription",
          "type": "string"
        },
        {
          "indexed": false,
          "internalType": "string",
          "name": "addressLocation",
          "type": "string"
        },
        {
          "indexed": false,
          "internalType": "string",
          "name": "propertyType",
          "type": "string"
        },
        {
          "indexed": false,
          "internalType": "string",
          "name": "features",
          "type": "string"
        },
        {
          "indexed": false,
          "internalType": "uint16",
          "name": "price",
          "type": "uint16"
        },
        {
          "indexed": false,
          "internalType": "uint16",
          "name": "squareFootage",
          "type": "uint16"
        },
        {
          "indexed": false,
          "internalType": "address payable",
          "name": "ownerAddress",
          "type": "address"
        }
      ],
      "name": "propertyBought",
      "type": "event"
    },
    {
      "constant": true,
      "inputs": [],
      "name": "offerCount",
      "outputs": [
        {
          "internalType": "uint256",
          "name": "",
          "type": "uint256"
        }
      ],
      "payable": false,
      "stateMutability": "view",
      "type": "function"
    },
    {
      "constant": true,
      "inputs": [
        {
          "internalType": "uint256",
          "name": "",
          "type": "uint256"
        }
      ],
      "name": "properties",
      "outputs": [
        {
          "internalType": "uint256",
          "name": "id",
          "type": "uint256"
        },
        {
          "internalType": "string",
          "name": "offerTitle",
          "type": "string"
        },
        {
          "internalType": "string",
          "name": "offerDescription",
          "type": "string"
        },
        {
          "internalType": "string",
          "name": "addressLocation",
          "type": "string"
        },
        {
          "internalType": "string",
          "name": "propertyType",
          "type": "string"
        },
        {
          "internalType": "string",
          "name": "features",
          "type": "string"
        },
        {
          "internalType": "uint16",
          "name": "price",
          "type": "uint16"
        },
        {
          "internalType": "uint16",
          "name": "squareFootage",
          "type": "uint16"
        },
        {
          "internalType": "address payable",
          "name": "ownerAddress",
          "type": "address"
        }
      ],
      "payable": false,
      "stateMutability": "view",
      "type": "function"
    },
    {
      "constant": false,
      "inputs": [
        {
          "internalType": "string",
          "name": "_offerTitle",
          "type": "string"
        },
        {
          "internalType": "string",
          "name": "_offerDescription",
          "type": "string"
        },
        {
          "internalType": "string",
          "name": "addressLocation",
          "type": "string"
        },
        {
          "internalType": "string",
          "name": "_propertyType",
          "type": "string"
        },
        {
          "internalType": "string",
          "name": "_features",
          "type": "string"
        },
        {
          "internalType": "uint16",
          "name": "_price",
          "type": "uint16"
        },
        {
          "internalType": "uint16",
          "name": "_squareFootage",
          "type": "uint16"
        }
      ],
      "name": "sellProperty",
      "outputs": [],
      "payable": false,
      "stateMutability": "nonpayable",
      "type": "function"
    },
    {
      "constant": false,
      "inputs": [
        {
          "internalType": "uint256",
          "name": "_propertyId",
          "type": "uint256"
        }
      ],
      "name": "buyProperty",
      "outputs": [],
      "payable": true,
      "stateMutability": "payable",
      "type": "function"
    },
    {
      "constant": true,
      "inputs": [],
      "name": "getOfferCount",
      "outputs": [
        {
          "internalType": "uint256",
          "name": "",
          "type": "uint256"
        }
      ],
      "payable": false,
      "stateMutability": "view",
      "type": "function"
    },
    {
      "constant": true,
      "inputs": [],
      "name": "getMyProperties",
      "outputs": [
        {
          "components": [
            {
              "internalType": "uint256",
              "name": "id",
              "type": "uint256"
            },
            {
              "internalType": "string",
              "name": "offerTitle",
              "type": "string"
            },
            {
              "internalType": "string",
              "name": "offerDescription",
              "type": "string"
            },
            {
              "internalType": "string",
              "name": "addressLocation",
              "type": "string"
            },
            {
              "internalType": "string",
              "name": "propertyType",
              "type": "string"
            },
            {
              "internalType": "string",
              "name": "features",
              "type": "string"
            },
            {
              "internalType": "uint16",
              "name": "price",
              "type": "uint16"
            },
            {
              "internalType": "uint16",
              "name": "squareFootage",
              "type": "uint16"
            },
            {
              "internalType": "address payable",
              "name": "ownerAddress",
              "type": "address"
            }
          ],
          "internalType": "struct Marketplace.Property[]",
          "name": "",
          "type": "tuple[]"
        }
      ],
      "payable": false,
      "stateMutability": "view",
      "type": "function"
    },
    {
      "constant": true,
      "inputs": [
        {
          "internalType": "uint256",
          "name": "_id",
          "type": "uint256"
        }
      ],
      "name": "getProperty",
      "outputs": [
        {
          "components": [
            {
              "internalType": "uint256",
              "name": "id",
              "type": "uint256"
            },
            {
              "internalType": "string",
              "name": "offerTitle",
              "type": "string"
            },
            {
              "internalType": "string",
              "name": "offerDescription",
              "type": "string"
            },
            {
              "internalType": "string",
              "name": "addressLocation",
              "type": "string"
            },
            {
              "internalType": "string",
              "name": "propertyType",
              "type": "string"
            },
            {
              "internalType": "string",
              "name": "features",
              "type": "string"
            },
            {
              "internalType": "uint16",
              "name": "price",
              "type": "uint16"
            },
            {
              "internalType": "uint16",
              "name": "squareFootage",
              "type": "uint16"
            },
            {
              "internalType": "address payable",
              "name": "ownerAddress",
              "type": "address"
            }
          ],
          "internalType": "struct Marketplace.Property",
          "name": "",
          "type": "tuple"
        }
      ],
      "payable": false,
      "stateMutability": "view",
      "type": "function"
    },
    {
      "constant": true,
      "inputs": [],
      "name": "getProperties",
      "outputs": [
        {
          "components": [
            {
              "internalType": "uint256",
              "name": "id",
              "type": "uint256"
            },
            {
              "internalType": "string",
              "name": "offerTitle",
              "type": "string"
            },
            {
              "internalType": "string",
              "name": "offerDescription",
              "type": "string"
            },
            {
              "internalType": "string",
              "name": "addressLocation",
              "type": "string"
            },
            {
              "internalType": "string",
              "name": "propertyType",
              "type": "string"
            },
            {
              "internalType": "string",
              "name": "features",
              "type": "string"
            },
            {
              "internalType": "uint16",
              "name": "price",
              "type": "uint16"
            },
            {
              "internalType": "uint16",
              "name": "squareFootage",
              "type": "uint16"
            },
            {
              "internalType": "address payable",
              "name": "ownerAddress",
              "type": "address"
            }
          ],
          "internalType": "struct Marketplace.Property[]",
          "name": "",
          "type": "tuple[]"
        }
      ],
      "payable": false,
      "stateMutability": "view",
      "type": "function"
    },
    {
      "constant": true,
      "inputs": [
        {
          "internalType": "uint256",
          "name": "_id",
          "type": "uint256"
        }
      ],
      "name": "getPropertyPriceAndSquareFootage",
      "outputs": [
        {
          "internalType": "uint16",
          "name": "",
          "type": "uint16"
        },
        {
          "internalType": "uint16",
          "name": "",
          "type": "uint16"
        }
      ],
      "payable": false,
      "stateMutability": "view",
      "type": "function"
    },
    {
      "constant": true,
      "inputs": [
        {
          "internalType": "uint256",
          "name": "_id",
          "type": "uint256"
        }
      ],
      "name": "getPropertyOwner",
      "outputs": [
        {
          "internalType": "address",
          "name": "",
          "type": "address"
        }
      ],
      "payable": false,
      "stateMutability": "view",
      "type": "function"
    },
    {
      "constant": true,
      "inputs": [
        {
          "internalType": "uint256",
          "name": "_id",
          "type": "uint256"
        }
      ],
      "name": "getPropertyInfos",
      "outputs": [
        {
          "internalType": "string",
          "name": "",
          "type": "string"
        },
        {
          "internalType": "string",
          "name": "",
          "type": "string"
        },
        {
          "internalType": "string",
          "name": "",
          "type": "string"
        },
        {
          "internalType": "string",
          "name": "",
          "type": "string"
        },
        {
          "internalType": "string",
          "name": "",
          "type": "string"
        }
      ],
      "payable": false,
      "stateMutability": "view",
      "type": "function"
    }
  ],
  "bytecode": "0x608060405234801561001057600080fd5b5060008081905550612af3806100276000396000f3fe60806040526004361061009c5760003560e01c80635f037b3d116100645780635f037b3d1461019e5780636fa830a6146101dc578063d048db37146101f8578063e34fc53114610223578063ec0cfd0b14610260578063f7b108081461028b5761009c565b80631115c24d146100a15780631c224a54146100cc5780632d62ce511461010d57806332665ffb14610136578063397f795214610173575b600080fd5b3480156100ad57600080fd5b506100b66102d0565b6040516100c3919061278e565b60405180910390f35b3480156100d857600080fd5b506100f360048036036100ee9190810190612308565b6102d6565b6040516101049594939291906126cd565b60405180910390f35b34801561011957600080fd5b50610134600480360361012f91908101906121f2565b61066b565b005b34801561014257600080fd5b5061015d60048036036101589190810190612308565b610890565b60405161016a9190612743565b60405180910390f35b34801561017f57600080fd5b50610188610c94565b60405161019591906126ab565b60405180910390f35b3480156101aa57600080fd5b506101c560048036036101c09190810190612308565b611166565b6040516101d3929190612765565b60405180910390f35b6101f660048036036101f19190810190612308565b6111bc565b005b34801561020457600080fd5b5061020d611781565b60405161021a919061278e565b60405180910390f35b34801561022f57600080fd5b5061024a60048036036102459190810190612308565b61178a565b6040516102579190612690565b60405180910390f35b34801561026c57600080fd5b506102756117ca565b60405161028291906126ab565b60405180910390f35b34801561029757600080fd5b506102b260048036036102ad9190810190612308565b611c31565b6040516102c799989796959493929190612859565b60405180910390f35b60005481565b6060806060806060600160008781526020019081526020016000206001016001600088815260200190815260200160002060020160016000898152602001908152602001600020600301600160008a8152602001908152602001600020600401600160008b8152602001908152602001600020600501848054600181600116156101000203166002900480601f0160208091040260200160405190810160405280929190818152602001828054600181600116156101000203166002900480156103e15780601f106103b6576101008083540402835291602001916103e1565b820191906000526020600020905b8154815290600101906020018083116103c457829003601f168201915b50505050509450838054600181600116156101000203166002900480601f01602080910402602001604051908101604052809291908181526020018280546001816001161561010002031660029004801561047d5780601f106104525761010080835404028352916020019161047d565b820191906000526020600020905b81548152906001019060200180831161046057829003601f168201915b50505050509350828054600181600116156101000203166002900480601f0160208091040260200160405190810160405280929190818152602001828054600181600116156101000203166002900480156105195780601f106104ee57610100808354040283529160200191610519565b820191906000526020600020905b8154815290600101906020018083116104fc57829003601f168201915b50505050509250818054600181600116156101000203166002900480601f0160208091040260200160405190810160405280929190818152602001828054600181600116156101000203166002900480156105b55780601f1061058a576101008083540402835291602001916105b5565b820191906000526020600020905b81548152906001019060200180831161059857829003601f168201915b50505050509150808054600181600116156101000203166002900480601f0160208091040260200160405190810160405280929190818152602001828054600181600116156101000203166002900480156106515780601f1061062657610100808354040283529160200191610651565b820191906000526020600020905b81548152906001019060200180831161063457829003601f168201915b505050505090509450945094509450945091939590929450565b60008261ffff161161067c57600080fd5b60008161ffff161161068d57600080fd5b600080815480929190600101919050555060405180610120016040528060005481526020018881526020018781526020018681526020018581526020018481526020018361ffff1681526020018261ffff1681526020013373ffffffffffffffffffffffffffffffffffffffff168152506001600080548152602001908152602001600020600082015181600001556020820151816001019080519060200190610738929190611fb3565b506040820151816002019080519060200190610755929190611fb3565b506060820151816003019080519060200190610772929190611fb3565b50608082015181600401908051906020019061078f929190611fb3565b5060a08201518160050190805190602001906107ac929190611fb3565b5060c08201518160060160006101000a81548161ffff021916908361ffff16021790555060e08201518160060160026101000a81548161ffff021916908361ffff1602179055506101008201518160060160046101000a81548173ffffffffffffffffffffffffffffffffffffffff021916908373ffffffffffffffffffffffffffffffffffffffff1602179055509050507fa7d95e327b11560af37d0da868aa5800079f8324101fa9b52522de9986508ad9600054888888888888883360405161087f999897969594939291906127a9565b60405180910390a150505050505050565b610898612033565b6108a0612033565b600160008481526020019081526020016000206040518061012001604052908160008201548152602001600182018054600181600116156101000203166002900480601f0160208091040260200160405190810160405280929190818152602001828054600181600116156101000203166002900480156109625780601f1061093757610100808354040283529160200191610962565b820191906000526020600020905b81548152906001019060200180831161094557829003601f168201915b50505050508152602001600282018054600181600116156101000203166002900480601f016020809104026020016040519081016040528092919081815260200182805460018160011615610100020316600290048015610a045780601f106109d957610100808354040283529160200191610a04565b820191906000526020600020905b8154815290600101906020018083116109e757829003601f168201915b50505050508152602001600382018054600181600116156101000203166002900480601f016020809104026020016040519081016040528092919081815260200182805460018160011615610100020316600290048015610aa65780601f10610a7b57610100808354040283529160200191610aa6565b820191906000526020600020905b815481529060010190602001808311610a8957829003601f168201915b50505050508152602001600482018054600181600116156101000203166002900480601f016020809104026020016040519081016040528092919081815260200182805460018160011615610100020316600290048015610b485780601f10610b1d57610100808354040283529160200191610b48565b820191906000526020600020905b815481529060010190602001808311610b2b57829003601f168201915b50505050508152602001600582018054600181600116156101000203166002900480601f016020809104026020016040519081016040528092919081815260200182805460018160011615610100020316600290048015610bea5780601f10610bbf57610100808354040283529160200191610bea565b820191906000526020600020905b815481529060010190602001808311610bcd57829003601f168201915b505050505081526020016006820160009054906101000a900461ffff1661ffff1661ffff1681526020016006820160029054906101000a900461ffff1661ffff1661ffff1681526020016006820160049054906101000a900473ffffffffffffffffffffffffffffffffffffffff1673ffffffffffffffffffffffffffffffffffffffff1673ffffffffffffffffffffffffffffffffffffffff1681525050905080915050919050565b606080600054604051908082528060200260200182016040528015610cd357816020015b610cc061209d565b815260200190600190039081610cb85790505b50905060008090505b60005481101561115e573373ffffffffffffffffffffffffffffffffffffffff166001600083815260200190815260200160002060060160049054906101000a900473ffffffffffffffffffffffffffffffffffffffff1673ffffffffffffffffffffffffffffffffffffffff16141561115157600160008281526020019081526020016000206040518061012001604052908160008201548152602001600182018054600181600116156101000203166002900480601f016020809104026020016040519081016040528092919081815260200182805460018160011615610100020316600290048015610e125780601f10610de757610100808354040283529160200191610e12565b820191906000526020600020905b815481529060010190602001808311610df557829003601f168201915b50505050508152602001600282018054600181600116156101000203166002900480601f016020809104026020016040519081016040528092919081815260200182805460018160011615610100020316600290048015610eb45780601f10610e8957610100808354040283529160200191610eb4565b820191906000526020600020905b815481529060010190602001808311610e9757829003601f168201915b50505050508152602001600382018054600181600116156101000203166002900480601f016020809104026020016040519081016040528092919081815260200182805460018160011615610100020316600290048015610f565780601f10610f2b57610100808354040283529160200191610f56565b820191906000526020600020905b815481529060010190602001808311610f3957829003601f168201915b50505050508152602001600482018054600181600116156101000203166002900480601f016020809104026020016040519081016040528092919081815260200182805460018160011615610100020316600290048015610ff85780601f10610fcd57610100808354040283529160200191610ff8565b820191906000526020600020905b815481529060010190602001808311610fdb57829003601f168201915b50505050508152602001600582018054600181600116156101000203166002900480601f01602080910402602001604051908101604052809291908181526020018280546001816001161561010002031660029004801561109a5780601f1061106f5761010080835404028352916020019161109a565b820191906000526020600020905b81548152906001019060200180831161107d57829003601f168201915b505050505081526020016006820160009054906101000a900461ffff1661ffff1661ffff1681526020016006820160029054906101000a900461ffff1661ffff1661ffff1681526020016006820160049054906101000a900473ffffffffffffffffffffffffffffffffffffffff1673ffffffffffffffffffffffffffffffffffffffff1673ffffffffffffffffffffffffffffffffffffffff168152505082828151811061114557fe5b60200260200101819052505b8080600101915050610cdc565b508091505090565b6000806001600084815260200190815260200160002060060160009054906101000a900461ffff166001600085815260200190815260200160002060060160029054906101000a900461ffff1691509150915091565b6111c4612033565b600160008381526020019081526020016000206040518061012001604052908160008201548152602001600182018054600181600116156101000203166002900480601f0160208091040260200160405190810160405280929190818152602001828054600181600116156101000203166002900480156112865780601f1061125b57610100808354040283529160200191611286565b820191906000526020600020905b81548152906001019060200180831161126957829003601f168201915b50505050508152602001600282018054600181600116156101000203166002900480601f0160208091040260200160405190810160405280929190818152602001828054600181600116156101000203166002900480156113285780601f106112fd57610100808354040283529160200191611328565b820191906000526020600020905b81548152906001019060200180831161130b57829003601f168201915b50505050508152602001600382018054600181600116156101000203166002900480601f0160208091040260200160405190810160405280929190818152602001828054600181600116156101000203166002900480156113ca5780601f1061139f576101008083540402835291602001916113ca565b820191906000526020600020905b8154815290600101906020018083116113ad57829003601f168201915b50505050508152602001600482018054600181600116156101000203166002900480601f01602080910402602001604051908101604052809291908181526020018280546001816001161561010002031660029004801561146c5780601f106114415761010080835404028352916020019161146c565b820191906000526020600020905b81548152906001019060200180831161144f57829003601f168201915b50505050508152602001600582018054600181600116156101000203166002900480601f01602080910402602001604051908101604052809291908181526020018280546001816001161561010002031660029004801561150e5780601f106114e35761010080835404028352916020019161150e565b820191906000526020600020905b8154815290600101906020018083116114f157829003601f168201915b505050505081526020016006820160009054906101000a900461ffff1661ffff1661ffff1681526020016006820160029054906101000a900461ffff1661ffff1661ffff1681526020016006820160049054906101000a900473ffffffffffffffffffffffffffffffffffffffff1673ffffffffffffffffffffffffffffffffffffffff1673ffffffffffffffffffffffffffffffffffffffff168152505090508060c0015161ffff163410156115c457600080fd5b80610100015173ffffffffffffffffffffffffffffffffffffffff166108fc349081150290604051600060405180830381858888f1935050505015801561160f573d6000803e3d6000fd5b503381610100019073ffffffffffffffffffffffffffffffffffffffff16908173ffffffffffffffffffffffffffffffffffffffff16815250507fad8afd0dd11fd0dbc25fb0ef70425eae14bfc3324776860ac9fc0041bb6cd5978282602001518360400151846060015185608001518660a001518760c001518860e00151336040516116a499989796959493929190612859565b60405180910390a1600160008381526020019081526020016000206000808201600090556001820160006116d89190612107565b6002820160006116e89190612107565b6003820160006116f89190612107565b6004820160006117089190612107565b6005820160006117189190612107565b6006820160006101000a81549061ffff02191690556006820160026101000a81549061ffff02191690556006820160046101000a81549073ffffffffffffffffffffffffffffffffffffffff021916905550506000808154809291906001900391905055505050565b60008054905090565b60006001600083815260200190815260200160002060060160049054906101000a900473ffffffffffffffffffffffffffffffffffffffff169050919050565b60608060005460405190808252806020026020018201604052801561180957816020015b6117f661209d565b8152602001906001900390816117ee5790505b50905060008090505b600054811015611c2957600160008281526020019081526020016000206040518061012001604052908160008201548152602001600182018054600181600116156101000203166002900480601f0160208091040260200160405190810160405280929190818152602001828054600181600116156101000203166002900480156118de5780601f106118b3576101008083540402835291602001916118de565b820191906000526020600020905b8154815290600101906020018083116118c157829003601f168201915b50505050508152602001600282018054600181600116156101000203166002900480601f0160208091040260200160405190810160405280929190818152602001828054600181600116156101000203166002900480156119805780601f1061195557610100808354040283529160200191611980565b820191906000526020600020905b81548152906001019060200180831161196357829003601f168201915b50505050508152602001600382018054600181600116156101000203166002900480601f016020809104026020016040519081016040528092919081815260200182805460018160011615610100020316600290048015611a225780601f106119f757610100808354040283529160200191611a22565b820191906000526020600020905b815481529060010190602001808311611a0557829003601f168201915b50505050508152602001600482018054600181600116156101000203166002900480601f016020809104026020016040519081016040528092919081815260200182805460018160011615610100020316600290048015611ac45780601f10611a9957610100808354040283529160200191611ac4565b820191906000526020600020905b815481529060010190602001808311611aa757829003601f168201915b50505050508152602001600582018054600181600116156101000203166002900480601f016020809104026020016040519081016040528092919081815260200182805460018160011615610100020316600290048015611b665780601f10611b3b57610100808354040283529160200191611b66565b820191906000526020600020905b815481529060010190602001808311611b4957829003601f168201915b505050505081526020016006820160009054906101000a900461ffff1661ffff1661ffff1681526020016006820160029054906101000a900461ffff1661ffff1661ffff1681526020016006820160049054906101000a900473ffffffffffffffffffffffffffffffffffffffff1673ffffffffffffffffffffffffffffffffffffffff1673ffffffffffffffffffffffffffffffffffffffff1681525050828281518110611c1157fe5b60200260200101819052508080600101915050611812565b508091505090565b6001602052806000526040600020600091509050806000015490806001018054600181600116156101000203166002900480601f016020809104026020016040519081016040528092919081815260200182805460018160011615610100020316600290048015611ce35780601f10611cb857610100808354040283529160200191611ce3565b820191906000526020600020905b815481529060010190602001808311611cc657829003601f168201915b505050505090806002018054600181600116156101000203166002900480601f016020809104026020016040519081016040528092919081815260200182805460018160011615610100020316600290048015611d815780601f10611d5657610100808354040283529160200191611d81565b820191906000526020600020905b815481529060010190602001808311611d6457829003601f168201915b505050505090806003018054600181600116156101000203166002900480601f016020809104026020016040519081016040528092919081815260200182805460018160011615610100020316600290048015611e1f5780601f10611df457610100808354040283529160200191611e1f565b820191906000526020600020905b815481529060010190602001808311611e0257829003601f168201915b505050505090806004018054600181600116156101000203166002900480601f016020809104026020016040519081016040528092919081815260200182805460018160011615610100020316600290048015611ebd5780601f10611e9257610100808354040283529160200191611ebd565b820191906000526020600020905b815481529060010190602001808311611ea057829003601f168201915b505050505090806005018054600181600116156101000203166002900480601f016020809104026020016040519081016040528092919081815260200182805460018160011615610100020316600290048015611f5b5780601f10611f3057610100808354040283529160200191611f5b565b820191906000526020600020905b815481529060010190602001808311611f3e57829003601f168201915b5050505050908060060160009054906101000a900461ffff16908060060160029054906101000a900461ffff16908060060160049054906101000a900473ffffffffffffffffffffffffffffffffffffffff16905089565b828054600181600116156101000203166002900490600052602060002090601f016020900481019282601f10611ff457805160ff1916838001178555612022565b82800160010185558215612022579182015b82811115612021578251825591602001919060010190612006565b5b50905061202f919061214f565b5090565b604051806101200160405280600081526020016060815260200160608152602001606081526020016060815260200160608152602001600061ffff168152602001600061ffff168152602001600073ffffffffffffffffffffffffffffffffffffffff1681525090565b604051806101200160405280600081526020016060815260200160608152602001606081526020016060815260200160608152602001600061ffff168152602001600061ffff168152602001600073ffffffffffffffffffffffffffffffffffffffff1681525090565b50805460018160011615610100020316600290046000825580601f1061212d575061214c565b601f01602090049060005260206000209081019061214b919061214f565b5b50565b61217191905b8082111561216d576000816000905550600101612155565b5090565b90565b600082601f83011261218557600080fd5b813561219861219382612936565b612909565b915080825260208301602083018583830111156121b457600080fd5b6121bf838284612a2f565b50505092915050565b6000813590506121d781612a82565b92915050565b6000813590506121ec81612a99565b92915050565b600080600080600080600060e0888a03121561220d57600080fd5b600088013567ffffffffffffffff81111561222757600080fd5b6122338a828b01612174565b975050602088013567ffffffffffffffff81111561225057600080fd5b61225c8a828b01612174565b965050604088013567ffffffffffffffff81111561227957600080fd5b6122858a828b01612174565b955050606088013567ffffffffffffffff8111156122a257600080fd5b6122ae8a828b01612174565b945050608088013567ffffffffffffffff8111156122cb57600080fd5b6122d78a828b01612174565b93505060a06122e88a828b016121c8565b92505060c06122f98a828b016121c8565b91505092959891949750929550565b60006020828403121561231a57600080fd5b6000612328848285016121dd565b91505092915050565b600061233d8383612573565b905092915050565b61234e816129e5565b82525050565b61235d816129e5565b82525050565b61236c816129d3565b82525050565b600061237d82612972565b61238781856129a0565b93508360208202850161239985612962565b8060005b858110156123d557848403895281516123b68582612331565b94506123c183612993565b925060208a0199505060018101905061239d565b50829750879550505050505092915050565b60006123f282612988565b6123fc81856129c2565b935061240c818560208601612a3e565b61241581612a71565b840191505092915050565b600061242b8261297d565b61243581856129b1565b9350612445818560208601612a3e565b61244e81612a71565b840191505092915050565b60006124648261297d565b61246e81856129c2565b935061247e818560208601612a3e565b61248781612a71565b840191505092915050565b6000610120830160008301516124ab6000860182612672565b50602083015184820360208601526124c38282612420565b915050604083015184820360408601526124dd8282612420565b915050606083015184820360608601526124f78282612420565b915050608083015184820360808601526125118282612420565b91505060a083015184820360a086015261252b8282612420565b91505060c083015161254060c0860182612654565b5060e083015161255360e0860182612654565b50610100830151612568610100860182612345565b508091505092915050565b60006101208301600083015161258c6000860182612672565b50602083015184820360208601526125a48282612420565b915050604083015184820360408601526125be8282612420565b915050606083015184820360608601526125d88282612420565b915050608083015184820360808601526125f28282612420565b91505060a083015184820360a086015261260c8282612420565b91505060c083015161262160c0860182612654565b5060e083015161263460e0860182612654565b50610100830151612649610100860182612345565b508091505092915050565b61265d816129f7565b82525050565b61266c816129f7565b82525050565b61267b81612a25565b82525050565b61268a81612a25565b82525050565b60006020820190506126a56000830184612363565b92915050565b600060208201905081810360008301526126c58184612372565b905092915050565b600060a08201905081810360008301526126e781886123e7565b905081810360208301526126fb81876123e7565b9050818103604083015261270f81866123e7565b9050818103606083015261272381856123e7565b9050818103608083015261273781846123e7565b90509695505050505050565b6000602082019050818103600083015261275d8184612492565b905092915050565b600060408201905061277a6000830185612663565b6127876020830184612663565b9392505050565b60006020820190506127a36000830184612681565b92915050565b6000610120820190506127bf600083018c612681565b81810360208301526127d1818b6123e7565b905081810360408301526127e5818a6123e7565b905081810360608301526127f981896123e7565b9050818103608083015261280d81886123e7565b905081810360a083015261282181876123e7565b905061283060c0830186612663565b61283d60e0830185612663565b61284b610100830184612354565b9a9950505050505050505050565b60006101208201905061286f600083018c612681565b8181036020830152612881818b612459565b90508181036040830152612895818a612459565b905081810360608301526128a98189612459565b905081810360808301526128bd8188612459565b905081810360a08301526128d18187612459565b90506128e060c0830186612663565b6128ed60e0830185612663565b6128fb610100830184612354565b9a9950505050505050505050565b6000604051905081810181811067ffffffffffffffff8211171561292c57600080fd5b8060405250919050565b600067ffffffffffffffff82111561294d57600080fd5b601f19601f8301169050602081019050919050565b6000819050602082019050919050565b600081519050919050565b600081519050919050565b600081519050919050565b6000602082019050919050565b600082825260208201905092915050565b600082825260208201905092915050565b600082825260208201905092915050565b60006129de82612a05565b9050919050565b60006129f082612a05565b9050919050565b600061ffff82169050919050565b600073ffffffffffffffffffffffffffffffffffffffff82169050919050565b6000819050919050565b82818337600083830152505050565b60005b83811015612a5c578082015181840152602081019050612a41565b83811115612a6b576000848401525b50505050565b6000601f19601f8301169050919050565b612a8b816129f7565b8114612a9657600080fd5b50565b612aa281612a25565b8114612aad57600080fd5b5056fea365627a7a723158209c08d02f190cf9c796a1d8c18c9c7974484edade51ca0ed699c8d39c6f1676d16c6578706572696d656e74616cf564736f6c63430005100040",
  "source": "pragma solidity >=0.4.22 <0.9.0;\npragma experimental ABIEncoderV2;\n\ncontract Marketplace {\n\n    uint256 public offerCount;\n\n    struct Property {\n        uint id;\n        string offerTitle;\n        string offerDescription;\n        string addressLocation;\n        string propertyType;\n        string features;\n\n        uint16 price;\n        uint16 squareFootage;\n\n        address payable ownerAddress;\n    }\n\n    mapping(uint => Property) public properties;\n\n    event propertyAdded(\n        uint id,\n        string offerTitle,\n        string offerDescription,\n        string addressLocation,\n        string propertyType,\n        string features,\n        uint16 price,\n        uint16 squareFootage,\n        address payable ownerAddress\n    );\n\n    event propertyBought(\n        uint id,\n        string offerTitle,\n        string offerDescription,\n        string addressLocation,\n        string propertyType,\n        string features,\n        uint16 price,\n        uint16 squareFootage,\n        address payable ownerAddress\n    );\n\n    constructor() public {\n        offerCount = 0;\n    }\n\n    function sellProperty(\n        string memory _offerTitle,\n        string memory _offerDescription,\n        string memory addressLocation,\n        string memory _propertyType,\n        string memory _features,\n        uint16 _price,\n        uint16 _squareFootage\n    ) public {\n        require(_price > 0);\n        require(_squareFootage > 0);\n\n        offerCount++;\n\n        properties[offerCount] = Property(\n            offerCount,\n            _offerTitle,\n            _offerDescription,\n            addressLocation,\n            _propertyType,\n            _features,\n            _price,\n            _squareFootage,\n            msg.sender\n        );\n        emit propertyAdded(\n            offerCount,\n            _offerTitle,\n            _offerDescription,\n            addressLocation,\n            _propertyType,\n            _features,\n            _price,\n            _squareFootage,\n            msg.sender\n        );\n    }\n\n    function buyProperty(uint _propertyId) public payable {\n        Property memory _property = properties[_propertyId];\n        require(msg.value >= _property.price);\n        address(_property.ownerAddress).transfer(msg.value);\n        _property.ownerAddress = msg.sender;\n        emit propertyBought(\n            _propertyId,\n            _property.offerTitle,\n            _property.offerDescription,\n            _property.addressLocation,\n            _property.propertyType,\n            _property.features,\n            _property.price,\n            _property.squareFootage,\n            msg.sender\n        );\n        delete properties[_propertyId];\n        offerCount--;\n    }\n\n    function getOfferCount() public view returns (uint256) {\n        return offerCount;\n    }\n\n    function getMyProperties() public view returns (Property[] memory) {\n        Property[] memory myProps = new Property[](offerCount);\n\n        for(uint i = 0; i < offerCount; i++) {\n            if (properties[i].ownerAddress == msg.sender) {\n                myProps[i] = properties[i];\n            }\n        }\n\n        return myProps;\n    }\n\n    function getProperty(uint _id) public view returns (Property memory) {\n        Property memory prop = properties[_id];\n        return prop;\n    }\n\n    function getProperties() public view returns (Property[] memory) {\n        Property[] memory props = new Property[](offerCount);\n\n        for(uint i = 0; i < offerCount; i++) {\n            props[i] = properties[i];\n        }\n\n        return (props);\n    }\n\n    function getPropertyPriceAndSquareFootage(uint _id) public view returns (uint16, uint16) {\n        return (properties[_id].price, properties[_id].squareFootage);\n    }\n\n    function getPropertyOwner(uint _id) public view returns (address) {\n        return (properties[_id].ownerAddress);\n    }\n\n//    function getProperties() public returns (\n//        uint[] idArray,\n//        string[] offerTitleArray,\n//        string[] offerDescriptionArray,\n//        string[] addressLocationArray,\n//        string[] propertyTypeArray,\n//        string[] featuresArray,\n//        uint16[] priceArray,\n//        uint16[] squareFootageArray,\n//        address[] ownerAddressArray\n//    ) {\n//        Property memory p = properties[_id];\n//        return (\n//        p.id,\n//        p.offerTitle,\n//        p.offerDescription,\n//        p.addressLocation,\n//        p.propertyType,\n//        p.features,\n//        p.price,\n//        p.squareFootage,\n//        p.ownerAddress\n//        );\n//    }\n\n//    function getPropertiesId() public view returns (uint[] memory) {\n//        uint[] memory ids = new uint[](offerCount);\n//\n//        for(uint i = 0; i < offerCount; i++) {\n//            ids[i] = properties[i].id;\n//        }\n//\n//        return (ids);\n//    }\n\n//    function getPropertiesTitleAndId() public view returns (string[] memory, uint[] memory) {\n//        string[] memory titles = new string[](offerCount);\n//        uint[] memory ids = new uint[](offerCount);\n//\n//        for(uint i = 1; i < offerCount; i++) {\n//            titles[i] = properties[i].offerTitle;\n//            ids[i] = properties[i].id;\n//        }\n//\n//        return (titles, ids);\n//    }\n\n    function getPropertyInfos(uint _id) public view returns (\n        string memory,\n        string memory,\n        string memory,\n        string memory,\n        string memory\n    ) {\n        return (\n            properties[_id].offerTitle,\n            properties[_id].offerDescription,\n            properties[_id].addressLocation,\n            properties[_id].propertyType,\n            properties[_id].features\n        );\n    }\n\n}\n",
  "sourcePath": "/Users/thomfdv/Documents/school/5al-s1/blockchain/Blockchain-ETH-Trading-Dapp/contracts/Marketplace.sol",
  "compiler": {
    "name": "solc",
    "version": "0.5.16+commit.9c3226ce.Emscripten.clang"
  },
  "schemaVersion": "3.3.3",
  "updatedAt": "2021-01-23T17:03:59.939Z",
  "networkType": "ethereum",
  "devdoc": {
    "methods": {}
  },
  "userdoc": {
    "methods": {}
  }
}