{
  "contractName": "Marketplace",
  "abi": [
    {
      "inputs": [
        {
          "internalType": "string",
          "name": "_name",
          "type": "string"
        }
      ],
      "payable": false,
      "stateMutability": "nonpayable",
      "type": "constructor"
    },
    {
      "anonymous": false,
      "inputs": [
        {
          "indexed": false,
          "internalType": "uint256",
          "name": "id",
          "type": "uint256"
        },
        {
          "indexed": false,
          "internalType": "string",
          "name": "offerTitle",
          "type": "string"
        },
        {
          "indexed": false,
          "internalType": "string",
          "name": "offerDescription",
          "type": "string"
        },
        {
          "indexed": false,
          "internalType": "string",
          "name": "addressLocation",
          "type": "string"
        },
        {
          "indexed": false,
          "internalType": "string",
          "name": "propertyType",
          "type": "string"
        },
        {
          "indexed": false,
          "internalType": "string",
          "name": "features",
          "type": "string"
        },
        {
          "indexed": false,
          "internalType": "uint16",
          "name": "price",
          "type": "uint16"
        },
        {
          "indexed": false,
          "internalType": "uint16",
          "name": "squareFootage",
          "type": "uint16"
        },
        {
          "indexed": false,
          "internalType": "address payable",
          "name": "ownerAddress",
          "type": "address"
        }
      ],
      "name": "propertyAdded",
      "type": "event"
    },
    {
      "anonymous": false,
      "inputs": [
        {
          "indexed": false,
          "internalType": "uint256",
          "name": "id",
          "type": "uint256"
        },
        {
          "indexed": false,
          "internalType": "string",
          "name": "offerTitle",
          "type": "string"
        },
        {
          "indexed": false,
          "internalType": "string",
          "name": "offerDescription",
          "type": "string"
        },
        {
          "indexed": false,
          "internalType": "string",
          "name": "addressLocation",
          "type": "string"
        },
        {
          "indexed": false,
          "internalType": "string",
          "name": "propertyType",
          "type": "string"
        },
        {
          "indexed": false,
          "internalType": "string",
          "name": "features",
          "type": "string"
        },
        {
          "indexed": false,
          "internalType": "uint16",
          "name": "price",
          "type": "uint16"
        },
        {
          "indexed": false,
          "internalType": "uint16",
          "name": "squareFootage",
          "type": "uint16"
        },
        {
          "indexed": false,
          "internalType": "address payable",
          "name": "ownerAddress",
          "type": "address"
        }
      ],
      "name": "propertyBought",
      "type": "event"
    },
    {
      "constant": true,
      "inputs": [
        {
          "internalType": "uint256",
          "name": "",
          "type": "uint256"
        }
      ],
      "name": "properties",
      "outputs": [
        {
          "internalType": "uint256",
          "name": "id",
          "type": "uint256"
        },
        {
          "internalType": "string",
          "name": "offerTitle",
          "type": "string"
        },
        {
          "internalType": "string",
          "name": "offerDescription",
          "type": "string"
        },
        {
          "internalType": "string",
          "name": "addressLocation",
          "type": "string"
        },
        {
          "internalType": "string",
          "name": "propertyType",
          "type": "string"
        },
        {
          "internalType": "string",
          "name": "features",
          "type": "string"
        },
        {
          "internalType": "uint16",
          "name": "price",
          "type": "uint16"
        },
        {
          "internalType": "uint16",
          "name": "squareFootage",
          "type": "uint16"
        },
        {
          "internalType": "address payable",
          "name": "ownerAddress",
          "type": "address"
        }
      ],
      "payable": false,
      "stateMutability": "view",
      "type": "function"
    },
    {
      "constant": false,
      "inputs": [
        {
          "internalType": "string",
          "name": "_offerTitle",
          "type": "string"
        },
        {
          "internalType": "string",
          "name": "_offerDescription",
          "type": "string"
        },
        {
          "internalType": "string",
          "name": "addressLocation",
          "type": "string"
        },
        {
          "internalType": "string",
          "name": "_propertyType",
          "type": "string"
        },
        {
          "internalType": "string",
          "name": "_features",
          "type": "string"
        },
        {
          "internalType": "uint16",
          "name": "_price",
          "type": "uint16"
        },
        {
          "internalType": "uint16",
          "name": "_squareFootage",
          "type": "uint16"
        }
      ],
      "name": "sellProperty",
      "outputs": [],
      "payable": false,
      "stateMutability": "nonpayable",
      "type": "function"
    },
    {
      "constant": false,
      "inputs": [
        {
          "internalType": "uint256",
          "name": "_propertyId",
          "type": "uint256"
        }
      ],
      "name": "buyProperty",
      "outputs": [],
      "payable": true,
      "stateMutability": "payable",
      "type": "function"
    }
  ],
  "bytecode": "0x60806040523480156200001157600080fd5b50604051620019f4380380620019f4833981810160405260208110156200003757600080fd5b81019080805160405193929190846401000000008211156200005857600080fd5b838201915060208201858111156200006f57600080fd5b82518660018202830111640100000000821117156200008d57600080fd5b8083526020830192505050908051906020019080838360005b83811015620000c3578082015181840152602081019050620000a6565b50505050905090810190601f168015620000f15780820380516001836020036101000a031916815260200191505b5060405250505080600090805190602001906200011092919062000120565b50600060018190555050620001cf565b828054600181600116156101000203166002900490600052602060002090601f016020900481019282601f106200016357805160ff191683800117855562000194565b8280016001018555821562000194579182015b828111156200019357825182559160200191906001019062000176565b5b509050620001a39190620001a7565b5090565b620001cc91905b80821115620001c8576000816000905550600101620001ae565b5090565b90565b61181580620001df6000396000f3fe6080604052600436106100345760003560e01c80632d62ce51146100395780636fa830a614610379578063f7b10808146103a7575b600080fd5b34801561004557600080fd5b50610377600480360360e081101561005c57600080fd5b810190808035906020019064010000000081111561007957600080fd5b82018360208201111561008b57600080fd5b803590602001918460018302840111640100000000831117156100ad57600080fd5b91908080601f016020809104026020016040519081016040528093929190818152602001838380828437600081840152601f19601f8201169050808301925050505050505091929192908035906020019064010000000081111561011057600080fd5b82018360208201111561012257600080fd5b8035906020019184600183028401116401000000008311171561014457600080fd5b91908080601f016020809104026020016040519081016040528093929190818152602001838380828437600081840152601f19601f820116905080830192505050505050509192919290803590602001906401000000008111156101a757600080fd5b8201836020820111156101b957600080fd5b803590602001918460018302840111640100000000831117156101db57600080fd5b91908080601f016020809104026020016040519081016040528093929190818152602001838380828437600081840152601f19601f8201169050808301925050505050505091929192908035906020019064010000000081111561023e57600080fd5b82018360208201111561025057600080fd5b8035906020019184600183028401116401000000008311171561027257600080fd5b91908080601f016020809104026020016040519081016040528093929190818152602001838380828437600081840152601f19601f820116905080830192505050505050509192919290803590602001906401000000008111156102d557600080fd5b8201836020820111156102e757600080fd5b8035906020019184600183028401116401000000008311171561030957600080fd5b91908080601f016020809104026020016040519081016040528093929190818152602001838380828437600081840152601f19601f820116905080830192505050505050509192919290803561ffff169060200190929190803561ffff169060200190929190505050610663565b005b6103a56004803603602081101561038f57600080fd5b8101908080359060200190929190505050610aef565b005b3480156103b357600080fd5b506103e0600480360360208110156103ca57600080fd5b8101908080359060200190929190505050611307565b604051808a815260200180602001806020018060200180602001806020018961ffff1661ffff1681526020018861ffff1661ffff1681526020018773ffffffffffffffffffffffffffffffffffffffff1673ffffffffffffffffffffffffffffffffffffffff16815260200186810386528e818151815260200191508051906020019080838360005b83811015610484578082015181840152602081019050610469565b50505050905090810190601f1680156104b15780820380516001836020036101000a031916815260200191505b5086810385528d818151815260200191508051906020019080838360005b838110156104ea5780820151818401526020810190506104cf565b50505050905090810190601f1680156105175780820380516001836020036101000a031916815260200191505b5086810384528c818151815260200191508051906020019080838360005b83811015610550578082015181840152602081019050610535565b50505050905090810190601f16801561057d5780820380516001836020036101000a031916815260200191505b5086810383528b818151815260200191508051906020019080838360005b838110156105b657808201518184015260208101905061059b565b50505050905090810190601f1680156105e35780820380516001836020036101000a031916815260200191505b5086810382528a818151815260200191508051906020019080838360005b8381101561061c578082015181840152602081019050610601565b50505050905090810190601f1680156106495780820380516001836020036101000a031916815260200191505b509e50505050505050505050505050505060405180910390f35b60008261ffff161161067457600080fd5b60008161ffff161161068557600080fd5b60016000815480929190600101919050555060405180610120016040528060015481526020018881526020018781526020018681526020018581526020018481526020018361ffff1681526020018261ffff1681526020013373ffffffffffffffffffffffffffffffffffffffff16815250600260006001548152602001908152602001600020600082015181600001556020820151816001019080519060200190610732929190611689565b50604082015181600201908051906020019061074f929190611689565b50606082015181600301908051906020019061076c929190611689565b506080820151816004019080519060200190610789929190611689565b5060a08201518160050190805190602001906107a6929190611689565b5060c08201518160060160006101000a81548161ffff021916908361ffff16021790555060e08201518160060160026101000a81548161ffff021916908361ffff1602179055506101008201518160060160046101000a81548173ffffffffffffffffffffffffffffffffffffffff021916908373ffffffffffffffffffffffffffffffffffffffff1602179055509050507fa7d95e327b11560af37d0da868aa5800079f8324101fa9b52522de9986508ad96001548888888888888833604051808a815260200180602001806020018060200180602001806020018961ffff1661ffff1681526020018861ffff1661ffff1681526020018773ffffffffffffffffffffffffffffffffffffffff1673ffffffffffffffffffffffffffffffffffffffff16815260200186810386528e818151815260200191508051906020019080838360005b838110156109085780820151818401526020810190506108ed565b50505050905090810190601f1680156109355780820380516001836020036101000a031916815260200191505b5086810385528d818151815260200191508051906020019080838360005b8381101561096e578082015181840152602081019050610953565b50505050905090810190601f16801561099b5780820380516001836020036101000a031916815260200191505b5086810384528c818151815260200191508051906020019080838360005b838110156109d45780820151818401526020810190506109b9565b50505050905090810190601f168015610a015780820380516001836020036101000a031916815260200191505b5086810383528b818151815260200191508051906020019080838360005b83811015610a3a578082015181840152602081019050610a1f565b50505050905090810190601f168015610a675780820380516001836020036101000a031916815260200191505b5086810382528a818151815260200191508051906020019080838360005b83811015610aa0578082015181840152602081019050610a85565b50505050905090810190601f168015610acd5780820380516001836020036101000a031916815260200191505b509e50505050505050505050505050505060405180910390a150505050505050565b610af7611709565b600260008381526020019081526020016000206040518061012001604052908160008201548152602001600182018054600181600116156101000203166002900480601f016020809104026020016040519081016040528092919081815260200182805460018160011615610100020316600290048015610bb95780601f10610b8e57610100808354040283529160200191610bb9565b820191906000526020600020905b815481529060010190602001808311610b9c57829003601f168201915b50505050508152602001600282018054600181600116156101000203166002900480601f016020809104026020016040519081016040528092919081815260200182805460018160011615610100020316600290048015610c5b5780601f10610c3057610100808354040283529160200191610c5b565b820191906000526020600020905b815481529060010190602001808311610c3e57829003601f168201915b50505050508152602001600382018054600181600116156101000203166002900480601f016020809104026020016040519081016040528092919081815260200182805460018160011615610100020316600290048015610cfd5780601f10610cd257610100808354040283529160200191610cfd565b820191906000526020600020905b815481529060010190602001808311610ce057829003601f168201915b50505050508152602001600482018054600181600116156101000203166002900480601f016020809104026020016040519081016040528092919081815260200182805460018160011615610100020316600290048015610d9f5780601f10610d7457610100808354040283529160200191610d9f565b820191906000526020600020905b815481529060010190602001808311610d8257829003601f168201915b50505050508152602001600582018054600181600116156101000203166002900480601f016020809104026020016040519081016040528092919081815260200182805460018160011615610100020316600290048015610e415780601f10610e1657610100808354040283529160200191610e41565b820191906000526020600020905b815481529060010190602001808311610e2457829003601f168201915b505050505081526020016006820160009054906101000a900461ffff1661ffff1661ffff1681526020016006820160029054906101000a900461ffff1661ffff1661ffff1681526020016006820160049054906101000a900473ffffffffffffffffffffffffffffffffffffffff1673ffffffffffffffffffffffffffffffffffffffff1673ffffffffffffffffffffffffffffffffffffffff168152505090508060c0015161ffff16341015610ef757600080fd5b80610100015173ffffffffffffffffffffffffffffffffffffffff166108fc349081150290604051600060405180830381858888f19350505050158015610f42573d6000803e3d6000fd5b503381610100019073ffffffffffffffffffffffffffffffffffffffff16908173ffffffffffffffffffffffffffffffffffffffff16815250507fad8afd0dd11fd0dbc25fb0ef70425eae14bfc3324776860ac9fc0041bb6cd5978282602001518360400151846060015185608001518660a001518760c001518860e0015133604051808a815260200180602001806020018060200180602001806020018961ffff1661ffff1681526020018861ffff1661ffff1681526020018773ffffffffffffffffffffffffffffffffffffffff1673ffffffffffffffffffffffffffffffffffffffff16815260200186810386528e818151815260200191508051906020019080838360005b8381101561106657808201518184015260208101905061104b565b50505050905090810190601f1680156110935780820380516001836020036101000a031916815260200191505b5086810385528d818151815260200191508051906020019080838360005b838110156110cc5780820151818401526020810190506110b1565b50505050905090810190601f1680156110f95780820380516001836020036101000a031916815260200191505b5086810384528c818151815260200191508051906020019080838360005b83811015611132578082015181840152602081019050611117565b50505050905090810190601f16801561115f5780820380516001836020036101000a031916815260200191505b5086810383528b818151815260200191508051906020019080838360005b8381101561119857808201518184015260208101905061117d565b50505050905090810190601f1680156111c55780820380516001836020036101000a031916815260200191505b5086810382528a818151815260200191508051906020019080838360005b838110156111fe5780820151818401526020810190506111e3565b50505050905090810190601f16801561122b5780820380516001836020036101000a031916815260200191505b509e50505050505050505050505050505060405180910390a1600260008381526020019081526020016000206000808201600090556001820160006112709190611773565b6002820160006112809190611773565b6003820160006112909190611773565b6004820160006112a09190611773565b6005820160006112b09190611773565b6006820160006101000a81549061ffff02191690556006820160026101000a81549061ffff02191690556006820160046101000a81549073ffffffffffffffffffffffffffffffffffffffff021916905550505050565b6002602052806000526040600020600091509050806000015490806001018054600181600116156101000203166002900480601f0160208091040260200160405190810160405280929190818152602001828054600181600116156101000203166002900480156113b95780601f1061138e576101008083540402835291602001916113b9565b820191906000526020600020905b81548152906001019060200180831161139c57829003601f168201915b505050505090806002018054600181600116156101000203166002900480601f0160208091040260200160405190810160405280929190818152602001828054600181600116156101000203166002900480156114575780601f1061142c57610100808354040283529160200191611457565b820191906000526020600020905b81548152906001019060200180831161143a57829003601f168201915b505050505090806003018054600181600116156101000203166002900480601f0160208091040260200160405190810160405280929190818152602001828054600181600116156101000203166002900480156114f55780601f106114ca576101008083540402835291602001916114f5565b820191906000526020600020905b8154815290600101906020018083116114d857829003601f168201915b505050505090806004018054600181600116156101000203166002900480601f0160208091040260200160405190810160405280929190818152602001828054600181600116156101000203166002900480156115935780601f1061156857610100808354040283529160200191611593565b820191906000526020600020905b81548152906001019060200180831161157657829003601f168201915b505050505090806005018054600181600116156101000203166002900480601f0160208091040260200160405190810160405280929190818152602001828054600181600116156101000203166002900480156116315780601f1061160657610100808354040283529160200191611631565b820191906000526020600020905b81548152906001019060200180831161161457829003601f168201915b5050505050908060060160009054906101000a900461ffff16908060060160029054906101000a900461ffff16908060060160049054906101000a900473ffffffffffffffffffffffffffffffffffffffff16905089565b828054600181600116156101000203166002900490600052602060002090601f016020900481019282601f106116ca57805160ff19168380011785556116f8565b828001600101855582156116f8579182015b828111156116f75782518255916020019190600101906116dc565b5b50905061170591906117bb565b5090565b604051806101200160405280600081526020016060815260200160608152602001606081526020016060815260200160608152602001600061ffff168152602001600061ffff168152602001600073ffffffffffffffffffffffffffffffffffffffff1681525090565b50805460018160011615610100020316600290046000825580601f1061179957506117b8565b601f0160209004906000526020600020908101906117b791906117bb565b5b50565b6117dd91905b808211156117d95760008160009055506001016117c1565b5090565b9056fea265627a7a72315820db8db9ba54921828866d9a96eb5b0583c88f1b91a0435213127f0d647b66400064736f6c63430005100032",
  "source": "pragma solidity >=0.4.22 <0.9.0;\n\ncontract Marketplace {\n\n    string name;\n\n    uint offerCount;\n\n    struct Property {\n        uint id;\n        string offerTitle;\n        string offerDescription;\n        string addressLocation;\n        string propertyType;\n        string features;\n\n        uint16 price;\n        uint16 squareFootage;\n\n        address payable ownerAddress;\n    }\n\n    mapping(uint => Property) public properties;\n\n    event propertyAdded(\n        uint id,\n        string offerTitle,\n        string offerDescription,\n        string addressLocation,\n        string propertyType,\n        string features,\n        uint16 price,\n        uint16 squareFootage,\n        address payable ownerAddress\n    );\n\n    event propertyBought(\n        uint id,\n        string offerTitle,\n        string offerDescription,\n        string addressLocation,\n        string propertyType,\n        string features,\n        uint16 price,\n        uint16 squareFootage,\n        address payable ownerAddress\n    );\n\n    constructor(string memory _name) public {\n        name = _name;\n        offerCount = 0;\n    }\n\n    function sellProperty(\n        string memory _offerTitle,\n        string memory _offerDescription,\n        string memory addressLocation,\n        string memory _propertyType,\n        string memory _features,\n        uint16 _price,\n        uint16 _squareFootage\n    ) public {\n        require(_price > 0);\n        require(_squareFootage > 0);\n\n        offerCount++;\n\n        properties[offerCount] = Property(\n            offerCount,\n            _offerTitle,\n            _offerDescription,\n            addressLocation,\n            _propertyType,\n            _features,\n            _price,\n            _squareFootage,\n            msg.sender\n        );\n        emit propertyAdded(\n            offerCount,\n            _offerTitle,\n            _offerDescription,\n            addressLocation,\n            _propertyType,\n            _features,\n            _price,\n            _squareFootage,\n            msg.sender\n        );\n    }\n\n    function buyProperty(uint _propertyId) public payable {\n        Property memory _property = properties[_propertyId];\n        require(msg.value >= _property.price);\n        address(_property.ownerAddress).transfer(msg.value);\n        _property.ownerAddress = msg.sender;\n        emit propertyBought(\n            _propertyId,\n            _property.offerTitle,\n            _property.offerDescription,\n            _property.addressLocation,\n            _property.propertyType,\n            _property.features,\n            _property.price,\n            _property.squareFootage,\n            msg.sender\n        );\n        delete properties[_propertyId];\n    }\n\n}\n",
  "sourcePath": "/Users/thomfdv/Documents/school/5al-s1/blockchain/Blockchain-ETH-Trading-Dapp/contracts/Marketplace.sol",
  "compiler": {
    "name": "solc",
    "version": "0.5.16+commit.9c3226ce.Emscripten.clang"
  },
  "schemaVersion": "3.3.3",
  "updatedAt": "2021-01-20T21:16:17.197Z",
  "devdoc": {
    "methods": {}
  },
  "userdoc": {
    "methods": {}
  }
}