{
  "contractName": "Marketplace",
  "abi": [
    {
      "inputs": [],
      "payable": false,
      "stateMutability": "nonpayable",
      "type": "constructor"
    },
    {
      "anonymous": false,
      "inputs": [
        {
          "indexed": false,
          "internalType": "uint256",
          "name": "id",
          "type": "uint256"
        },
        {
          "indexed": false,
          "internalType": "string",
          "name": "offerTitle",
          "type": "string"
        },
        {
          "indexed": false,
          "internalType": "string",
          "name": "offerDescription",
          "type": "string"
        },
        {
          "indexed": false,
          "internalType": "string",
          "name": "addressLocation",
          "type": "string"
        },
        {
          "indexed": false,
          "internalType": "string",
          "name": "propertyType",
          "type": "string"
        },
        {
          "indexed": false,
          "internalType": "string",
          "name": "features",
          "type": "string"
        },
        {
          "indexed": false,
          "internalType": "uint16",
          "name": "price",
          "type": "uint16"
        },
        {
          "indexed": false,
          "internalType": "uint16",
          "name": "squareFootage",
          "type": "uint16"
        },
        {
          "indexed": false,
          "internalType": "address payable",
          "name": "ownerAddress",
          "type": "address"
        }
      ],
      "name": "propertyAdded",
      "type": "event"
    },
    {
      "anonymous": false,
      "inputs": [
        {
          "indexed": false,
          "internalType": "uint256",
          "name": "id",
          "type": "uint256"
        },
        {
          "indexed": false,
          "internalType": "string",
          "name": "offerTitle",
          "type": "string"
        },
        {
          "indexed": false,
          "internalType": "string",
          "name": "offerDescription",
          "type": "string"
        },
        {
          "indexed": false,
          "internalType": "string",
          "name": "addressLocation",
          "type": "string"
        },
        {
          "indexed": false,
          "internalType": "string",
          "name": "propertyType",
          "type": "string"
        },
        {
          "indexed": false,
          "internalType": "string",
          "name": "features",
          "type": "string"
        },
        {
          "indexed": false,
          "internalType": "uint16",
          "name": "price",
          "type": "uint16"
        },
        {
          "indexed": false,
          "internalType": "uint16",
          "name": "squareFootage",
          "type": "uint16"
        },
        {
          "indexed": false,
          "internalType": "address payable",
          "name": "ownerAddress",
          "type": "address"
        }
      ],
      "name": "propertyBought",
      "type": "event"
    },
    {
      "constant": true,
      "inputs": [],
      "name": "offerCount",
      "outputs": [
        {
          "internalType": "uint256",
          "name": "",
          "type": "uint256"
        }
      ],
      "payable": false,
      "stateMutability": "view",
      "type": "function"
    },
    {
      "constant": true,
      "inputs": [
        {
          "internalType": "uint256",
          "name": "",
          "type": "uint256"
        }
      ],
      "name": "properties",
      "outputs": [
        {
          "internalType": "uint256",
          "name": "id",
          "type": "uint256"
        },
        {
          "internalType": "string",
          "name": "offerTitle",
          "type": "string"
        },
        {
          "internalType": "string",
          "name": "offerDescription",
          "type": "string"
        },
        {
          "internalType": "string",
          "name": "addressLocation",
          "type": "string"
        },
        {
          "internalType": "string",
          "name": "propertyType",
          "type": "string"
        },
        {
          "internalType": "string",
          "name": "features",
          "type": "string"
        },
        {
          "internalType": "uint16",
          "name": "price",
          "type": "uint16"
        },
        {
          "internalType": "uint16",
          "name": "squareFootage",
          "type": "uint16"
        },
        {
          "internalType": "address payable",
          "name": "ownerAddress",
          "type": "address"
        }
      ],
      "payable": false,
      "stateMutability": "view",
      "type": "function"
    },
    {
      "constant": false,
      "inputs": [
        {
          "internalType": "string",
          "name": "_offerTitle",
          "type": "string"
        },
        {
          "internalType": "string",
          "name": "_offerDescription",
          "type": "string"
        },
        {
          "internalType": "string",
          "name": "addressLocation",
          "type": "string"
        },
        {
          "internalType": "string",
          "name": "_propertyType",
          "type": "string"
        },
        {
          "internalType": "string",
          "name": "_features",
          "type": "string"
        },
        {
          "internalType": "uint16",
          "name": "_price",
          "type": "uint16"
        },
        {
          "internalType": "uint16",
          "name": "_squareFootage",
          "type": "uint16"
        }
      ],
      "name": "sellProperty",
      "outputs": [],
      "payable": false,
      "stateMutability": "nonpayable",
      "type": "function"
    },
    {
      "constant": false,
      "inputs": [
        {
          "internalType": "uint256",
          "name": "_propertyId",
          "type": "uint256"
        }
      ],
      "name": "buyProperty",
      "outputs": [],
      "payable": true,
      "stateMutability": "payable",
      "type": "function"
    },
    {
      "constant": true,
      "inputs": [],
      "name": "getOfferCount",
      "outputs": [
        {
          "internalType": "uint256",
          "name": "",
          "type": "uint256"
        }
      ],
      "payable": false,
      "stateMutability": "view",
      "type": "function"
    },
    {
      "constant": false,
      "inputs": [],
      "name": "getMyProperties",
      "outputs": [
        {
          "components": [
            {
              "internalType": "uint256",
              "name": "id",
              "type": "uint256"
            },
            {
              "internalType": "string",
              "name": "offerTitle",
              "type": "string"
            },
            {
              "internalType": "string",
              "name": "offerDescription",
              "type": "string"
            },
            {
              "internalType": "string",
              "name": "addressLocation",
              "type": "string"
            },
            {
              "internalType": "string",
              "name": "propertyType",
              "type": "string"
            },
            {
              "internalType": "string",
              "name": "features",
              "type": "string"
            },
            {
              "internalType": "uint16",
              "name": "price",
              "type": "uint16"
            },
            {
              "internalType": "uint16",
              "name": "squareFootage",
              "type": "uint16"
            },
            {
              "internalType": "address payable",
              "name": "ownerAddress",
              "type": "address"
            }
          ],
          "internalType": "struct Marketplace.Property[]",
          "name": "",
          "type": "tuple[]"
        }
      ],
      "payable": false,
      "stateMutability": "nonpayable",
      "type": "function"
    },
    {
      "constant": false,
      "inputs": [
        {
          "internalType": "uint256",
          "name": "_id",
          "type": "uint256"
        }
      ],
      "name": "getProperty",
      "outputs": [
        {
          "components": [
            {
              "internalType": "uint256",
              "name": "id",
              "type": "uint256"
            },
            {
              "internalType": "string",
              "name": "offerTitle",
              "type": "string"
            },
            {
              "internalType": "string",
              "name": "offerDescription",
              "type": "string"
            },
            {
              "internalType": "string",
              "name": "addressLocation",
              "type": "string"
            },
            {
              "internalType": "string",
              "name": "propertyType",
              "type": "string"
            },
            {
              "internalType": "string",
              "name": "features",
              "type": "string"
            },
            {
              "internalType": "uint16",
              "name": "price",
              "type": "uint16"
            },
            {
              "internalType": "uint16",
              "name": "squareFootage",
              "type": "uint16"
            },
            {
              "internalType": "address payable",
              "name": "ownerAddress",
              "type": "address"
            }
          ],
          "internalType": "struct Marketplace.Property",
          "name": "",
          "type": "tuple"
        }
      ],
      "payable": false,
      "stateMutability": "nonpayable",
      "type": "function"
    },
    {
      "constant": false,
      "inputs": [],
      "name": "getProperties",
      "outputs": [
        {
          "components": [
            {
              "internalType": "uint256",
              "name": "id",
              "type": "uint256"
            },
            {
              "internalType": "string",
              "name": "offerTitle",
              "type": "string"
            },
            {
              "internalType": "string",
              "name": "offerDescription",
              "type": "string"
            },
            {
              "internalType": "string",
              "name": "addressLocation",
              "type": "string"
            },
            {
              "internalType": "string",
              "name": "propertyType",
              "type": "string"
            },
            {
              "internalType": "string",
              "name": "features",
              "type": "string"
            },
            {
              "internalType": "uint16",
              "name": "price",
              "type": "uint16"
            },
            {
              "internalType": "uint16",
              "name": "squareFootage",
              "type": "uint16"
            },
            {
              "internalType": "address payable",
              "name": "ownerAddress",
              "type": "address"
            }
          ],
          "internalType": "struct Marketplace.Property[]",
          "name": "",
          "type": "tuple[]"
        }
      ],
      "payable": false,
      "stateMutability": "nonpayable",
      "type": "function"
    }
  ],
  "bytecode": "0x608060405234801561001057600080fd5b5060008081905550612510806100276000396000f3fe60806040526004361061007b5760003560e01c80636fa830a61161004e5780636fa830a61461013c578063d048db3714610158578063ec0cfd0b14610183578063f7b10808146101ae5761007b565b80631115c24d146100805780632d62ce51146100ab57806332665ffb146100d4578063397f795214610111575b600080fd5b34801561008c57600080fd5b506100956101f3565b6040516100a291906121bd565b60405180910390f35b3480156100b757600080fd5b506100d260048036036100cd9190810190611cea565b6101f9565b005b3480156100e057600080fd5b506100fb60048036036100f69190810190611e00565b61041e565b604051610108919061219b565b60405180910390f35b34801561011d57600080fd5b50610126610822565b6040516101339190612179565b60405180910390f35b61015660048036036101519190810190611e00565b610cf4565b005b34801561016457600080fd5b5061016d6112b9565b60405161017a91906121bd565b60405180910390f35b34801561018f57600080fd5b506101986112c2565b6040516101a59190612179565b60405180910390f35b3480156101ba57600080fd5b506101d560048036036101d09190810190611e00565b611729565b6040516101ea99989796959493929190612288565b60405180910390f35b60005481565b60008261ffff161161020a57600080fd5b60008161ffff161161021b57600080fd5b600080815480929190600101919050555060405180610120016040528060005481526020018881526020018781526020018681526020018581526020018481526020018361ffff1681526020018261ffff1681526020013373ffffffffffffffffffffffffffffffffffffffff1681525060016000805481526020019081526020016000206000820151816000015560208201518160010190805190602001906102c6929190611aab565b5060408201518160020190805190602001906102e3929190611aab565b506060820151816003019080519060200190610300929190611aab565b50608082015181600401908051906020019061031d929190611aab565b5060a082015181600501908051906020019061033a929190611aab565b5060c08201518160060160006101000a81548161ffff021916908361ffff16021790555060e08201518160060160026101000a81548161ffff021916908361ffff1602179055506101008201518160060160046101000a81548173ffffffffffffffffffffffffffffffffffffffff021916908373ffffffffffffffffffffffffffffffffffffffff1602179055509050507fa7d95e327b11560af37d0da868aa5800079f8324101fa9b52522de9986508ad9600054888888888888883360405161040d999897969594939291906121d8565b60405180910390a150505050505050565b610426611b2b565b61042e611b2b565b600160008481526020019081526020016000206040518061012001604052908160008201548152602001600182018054600181600116156101000203166002900480601f0160208091040260200160405190810160405280929190818152602001828054600181600116156101000203166002900480156104f05780601f106104c5576101008083540402835291602001916104f0565b820191906000526020600020905b8154815290600101906020018083116104d357829003601f168201915b50505050508152602001600282018054600181600116156101000203166002900480601f0160208091040260200160405190810160405280929190818152602001828054600181600116156101000203166002900480156105925780601f1061056757610100808354040283529160200191610592565b820191906000526020600020905b81548152906001019060200180831161057557829003601f168201915b50505050508152602001600382018054600181600116156101000203166002900480601f0160208091040260200160405190810160405280929190818152602001828054600181600116156101000203166002900480156106345780601f1061060957610100808354040283529160200191610634565b820191906000526020600020905b81548152906001019060200180831161061757829003601f168201915b50505050508152602001600482018054600181600116156101000203166002900480601f0160208091040260200160405190810160405280929190818152602001828054600181600116156101000203166002900480156106d65780601f106106ab576101008083540402835291602001916106d6565b820191906000526020600020905b8154815290600101906020018083116106b957829003601f168201915b50505050508152602001600582018054600181600116156101000203166002900480601f0160208091040260200160405190810160405280929190818152602001828054600181600116156101000203166002900480156107785780601f1061074d57610100808354040283529160200191610778565b820191906000526020600020905b81548152906001019060200180831161075b57829003601f168201915b505050505081526020016006820160009054906101000a900461ffff1661ffff1661ffff1681526020016006820160029054906101000a900461ffff1661ffff1661ffff1681526020016006820160049054906101000a900473ffffffffffffffffffffffffffffffffffffffff1673ffffffffffffffffffffffffffffffffffffffff1673ffffffffffffffffffffffffffffffffffffffff1681525050905080915050919050565b60608060005460405190808252806020026020018201604052801561086157816020015b61084e611b95565b8152602001906001900390816108465790505b50905060008090505b600054811015610cec573373ffffffffffffffffffffffffffffffffffffffff166001600083815260200190815260200160002060060160049054906101000a900473ffffffffffffffffffffffffffffffffffffffff1673ffffffffffffffffffffffffffffffffffffffff161415610cdf57600160008281526020019081526020016000206040518061012001604052908160008201548152602001600182018054600181600116156101000203166002900480601f0160208091040260200160405190810160405280929190818152602001828054600181600116156101000203166002900480156109a05780601f10610975576101008083540402835291602001916109a0565b820191906000526020600020905b81548152906001019060200180831161098357829003601f168201915b50505050508152602001600282018054600181600116156101000203166002900480601f016020809104026020016040519081016040528092919081815260200182805460018160011615610100020316600290048015610a425780601f10610a1757610100808354040283529160200191610a42565b820191906000526020600020905b815481529060010190602001808311610a2557829003601f168201915b50505050508152602001600382018054600181600116156101000203166002900480601f016020809104026020016040519081016040528092919081815260200182805460018160011615610100020316600290048015610ae45780601f10610ab957610100808354040283529160200191610ae4565b820191906000526020600020905b815481529060010190602001808311610ac757829003601f168201915b50505050508152602001600482018054600181600116156101000203166002900480601f016020809104026020016040519081016040528092919081815260200182805460018160011615610100020316600290048015610b865780601f10610b5b57610100808354040283529160200191610b86565b820191906000526020600020905b815481529060010190602001808311610b6957829003601f168201915b50505050508152602001600582018054600181600116156101000203166002900480601f016020809104026020016040519081016040528092919081815260200182805460018160011615610100020316600290048015610c285780601f10610bfd57610100808354040283529160200191610c28565b820191906000526020600020905b815481529060010190602001808311610c0b57829003601f168201915b505050505081526020016006820160009054906101000a900461ffff1661ffff1661ffff1681526020016006820160029054906101000a900461ffff1661ffff1661ffff1681526020016006820160049054906101000a900473ffffffffffffffffffffffffffffffffffffffff1673ffffffffffffffffffffffffffffffffffffffff1673ffffffffffffffffffffffffffffffffffffffff1681525050828281518110610cd357fe5b60200260200101819052505b808060010191505061086a565b508091505090565b610cfc611b2b565b600160008381526020019081526020016000206040518061012001604052908160008201548152602001600182018054600181600116156101000203166002900480601f016020809104026020016040519081016040528092919081815260200182805460018160011615610100020316600290048015610dbe5780601f10610d9357610100808354040283529160200191610dbe565b820191906000526020600020905b815481529060010190602001808311610da157829003601f168201915b50505050508152602001600282018054600181600116156101000203166002900480601f016020809104026020016040519081016040528092919081815260200182805460018160011615610100020316600290048015610e605780601f10610e3557610100808354040283529160200191610e60565b820191906000526020600020905b815481529060010190602001808311610e4357829003601f168201915b50505050508152602001600382018054600181600116156101000203166002900480601f016020809104026020016040519081016040528092919081815260200182805460018160011615610100020316600290048015610f025780601f10610ed757610100808354040283529160200191610f02565b820191906000526020600020905b815481529060010190602001808311610ee557829003601f168201915b50505050508152602001600482018054600181600116156101000203166002900480601f016020809104026020016040519081016040528092919081815260200182805460018160011615610100020316600290048015610fa45780601f10610f7957610100808354040283529160200191610fa4565b820191906000526020600020905b815481529060010190602001808311610f8757829003601f168201915b50505050508152602001600582018054600181600116156101000203166002900480601f0160208091040260200160405190810160405280929190818152602001828054600181600116156101000203166002900480156110465780601f1061101b57610100808354040283529160200191611046565b820191906000526020600020905b81548152906001019060200180831161102957829003601f168201915b505050505081526020016006820160009054906101000a900461ffff1661ffff1661ffff1681526020016006820160029054906101000a900461ffff1661ffff1661ffff1681526020016006820160049054906101000a900473ffffffffffffffffffffffffffffffffffffffff1673ffffffffffffffffffffffffffffffffffffffff1673ffffffffffffffffffffffffffffffffffffffff168152505090508060c0015161ffff163410156110fc57600080fd5b80610100015173ffffffffffffffffffffffffffffffffffffffff166108fc349081150290604051600060405180830381858888f19350505050158015611147573d6000803e3d6000fd5b503381610100019073ffffffffffffffffffffffffffffffffffffffff16908173ffffffffffffffffffffffffffffffffffffffff16815250507fad8afd0dd11fd0dbc25fb0ef70425eae14bfc3324776860ac9fc0041bb6cd5978282602001518360400151846060015185608001518660a001518760c001518860e00151336040516111dc99989796959493929190612288565b60405180910390a1600160008381526020019081526020016000206000808201600090556001820160006112109190611bff565b6002820160006112209190611bff565b6003820160006112309190611bff565b6004820160006112409190611bff565b6005820160006112509190611bff565b6006820160006101000a81549061ffff02191690556006820160026101000a81549061ffff02191690556006820160046101000a81549073ffffffffffffffffffffffffffffffffffffffff021916905550506000808154809291906001900391905055505050565b60008054905090565b60608060005460405190808252806020026020018201604052801561130157816020015b6112ee611b95565b8152602001906001900390816112e65790505b50905060008090505b60005481101561172157600160008281526020019081526020016000206040518061012001604052908160008201548152602001600182018054600181600116156101000203166002900480601f0160208091040260200160405190810160405280929190818152602001828054600181600116156101000203166002900480156113d65780601f106113ab576101008083540402835291602001916113d6565b820191906000526020600020905b8154815290600101906020018083116113b957829003601f168201915b50505050508152602001600282018054600181600116156101000203166002900480601f0160208091040260200160405190810160405280929190818152602001828054600181600116156101000203166002900480156114785780601f1061144d57610100808354040283529160200191611478565b820191906000526020600020905b81548152906001019060200180831161145b57829003601f168201915b50505050508152602001600382018054600181600116156101000203166002900480601f01602080910402602001604051908101604052809291908181526020018280546001816001161561010002031660029004801561151a5780601f106114ef5761010080835404028352916020019161151a565b820191906000526020600020905b8154815290600101906020018083116114fd57829003601f168201915b50505050508152602001600482018054600181600116156101000203166002900480601f0160208091040260200160405190810160405280929190818152602001828054600181600116156101000203166002900480156115bc5780601f10611591576101008083540402835291602001916115bc565b820191906000526020600020905b81548152906001019060200180831161159f57829003601f168201915b50505050508152602001600582018054600181600116156101000203166002900480601f01602080910402602001604051908101604052809291908181526020018280546001816001161561010002031660029004801561165e5780601f106116335761010080835404028352916020019161165e565b820191906000526020600020905b81548152906001019060200180831161164157829003601f168201915b505050505081526020016006820160009054906101000a900461ffff1661ffff1661ffff1681526020016006820160029054906101000a900461ffff1661ffff1661ffff1681526020016006820160049054906101000a900473ffffffffffffffffffffffffffffffffffffffff1673ffffffffffffffffffffffffffffffffffffffff1673ffffffffffffffffffffffffffffffffffffffff168152505082828151811061170957fe5b6020026020010181905250808060010191505061130a565b508091505090565b6001602052806000526040600020600091509050806000015490806001018054600181600116156101000203166002900480601f0160208091040260200160405190810160405280929190818152602001828054600181600116156101000203166002900480156117db5780601f106117b0576101008083540402835291602001916117db565b820191906000526020600020905b8154815290600101906020018083116117be57829003601f168201915b505050505090806002018054600181600116156101000203166002900480601f0160208091040260200160405190810160405280929190818152602001828054600181600116156101000203166002900480156118795780601f1061184e57610100808354040283529160200191611879565b820191906000526020600020905b81548152906001019060200180831161185c57829003601f168201915b505050505090806003018054600181600116156101000203166002900480601f0160208091040260200160405190810160405280929190818152602001828054600181600116156101000203166002900480156119175780601f106118ec57610100808354040283529160200191611917565b820191906000526020600020905b8154815290600101906020018083116118fa57829003601f168201915b505050505090806004018054600181600116156101000203166002900480601f0160208091040260200160405190810160405280929190818152602001828054600181600116156101000203166002900480156119b55780601f1061198a576101008083540402835291602001916119b5565b820191906000526020600020905b81548152906001019060200180831161199857829003601f168201915b505050505090806005018054600181600116156101000203166002900480601f016020809104026020016040519081016040528092919081815260200182805460018160011615610100020316600290048015611a535780601f10611a2857610100808354040283529160200191611a53565b820191906000526020600020905b815481529060010190602001808311611a3657829003601f168201915b5050505050908060060160009054906101000a900461ffff16908060060160029054906101000a900461ffff16908060060160049054906101000a900473ffffffffffffffffffffffffffffffffffffffff16905089565b828054600181600116156101000203166002900490600052602060002090601f016020900481019282601f10611aec57805160ff1916838001178555611b1a565b82800160010185558215611b1a579182015b82811115611b19578251825591602001919060010190611afe565b5b509050611b279190611c47565b5090565b604051806101200160405280600081526020016060815260200160608152602001606081526020016060815260200160608152602001600061ffff168152602001600061ffff168152602001600073ffffffffffffffffffffffffffffffffffffffff1681525090565b604051806101200160405280600081526020016060815260200160608152602001606081526020016060815260200160608152602001600061ffff168152602001600061ffff168152602001600073ffffffffffffffffffffffffffffffffffffffff1681525090565b50805460018160011615610100020316600290046000825580601f10611c255750611c44565b601f016020900490600052602060002090810190611c439190611c47565b5b50565b611c6991905b80821115611c65576000816000905550600101611c4d565b5090565b90565b600082601f830112611c7d57600080fd5b8135611c90611c8b82612365565b612338565b91508082526020830160208301858383011115611cac57600080fd5b611cb783828461244c565b50505092915050565b600081359050611ccf8161249f565b92915050565b600081359050611ce4816124b6565b92915050565b600080600080600080600060e0888a031215611d0557600080fd5b600088013567ffffffffffffffff811115611d1f57600080fd5b611d2b8a828b01611c6c565b975050602088013567ffffffffffffffff811115611d4857600080fd5b611d548a828b01611c6c565b965050604088013567ffffffffffffffff811115611d7157600080fd5b611d7d8a828b01611c6c565b955050606088013567ffffffffffffffff811115611d9a57600080fd5b611da68a828b01611c6c565b945050608088013567ffffffffffffffff811115611dc357600080fd5b611dcf8a828b01611c6c565b93505060a0611de08a828b01611cc0565b92505060c0611df18a828b01611cc0565b91505092959891949750929550565b600060208284031215611e1257600080fd5b6000611e2084828501611cd5565b91505092915050565b6000611e35838361205c565b905092915050565b611e4681612402565b82525050565b611e5581612402565b82525050565b6000611e66826123a1565b611e7081856123cf565b935083602082028501611e8285612391565b8060005b85811015611ebe5784840389528151611e9f8582611e29565b9450611eaa836123c2565b925060208a01995050600181019050611e86565b50829750879550505050505092915050565b6000611edb826123b7565b611ee581856123f1565b9350611ef581856020860161245b565b611efe8161248e565b840191505092915050565b6000611f14826123ac565b611f1e81856123e0565b9350611f2e81856020860161245b565b611f378161248e565b840191505092915050565b6000611f4d826123ac565b611f5781856123f1565b9350611f6781856020860161245b565b611f708161248e565b840191505092915050565b600061012083016000830151611f94600086018261215b565b5060208301518482036020860152611fac8282611f09565b91505060408301518482036040860152611fc68282611f09565b91505060608301518482036060860152611fe08282611f09565b91505060808301518482036080860152611ffa8282611f09565b91505060a083015184820360a08601526120148282611f09565b91505060c083015161202960c086018261213d565b5060e083015161203c60e086018261213d565b50610100830151612051610100860182611e3d565b508091505092915050565b600061012083016000830151612075600086018261215b565b506020830151848203602086015261208d8282611f09565b915050604083015184820360408601526120a78282611f09565b915050606083015184820360608601526120c18282611f09565b915050608083015184820360808601526120db8282611f09565b91505060a083015184820360a08601526120f58282611f09565b91505060c083015161210a60c086018261213d565b5060e083015161211d60e086018261213d565b50610100830151612132610100860182611e3d565b508091505092915050565b61214681612414565b82525050565b61215581612414565b82525050565b61216481612442565b82525050565b61217381612442565b82525050565b600060208201905081810360008301526121938184611e5b565b905092915050565b600060208201905081810360008301526121b58184611f7b565b905092915050565b60006020820190506121d2600083018461216a565b92915050565b6000610120820190506121ee600083018c61216a565b8181036020830152612200818b611ed0565b90508181036040830152612214818a611ed0565b905081810360608301526122288189611ed0565b9050818103608083015261223c8188611ed0565b905081810360a08301526122508187611ed0565b905061225f60c083018661214c565b61226c60e083018561214c565b61227a610100830184611e4c565b9a9950505050505050505050565b60006101208201905061229e600083018c61216a565b81810360208301526122b0818b611f42565b905081810360408301526122c4818a611f42565b905081810360608301526122d88189611f42565b905081810360808301526122ec8188611f42565b905081810360a08301526123008187611f42565b905061230f60c083018661214c565b61231c60e083018561214c565b61232a610100830184611e4c565b9a9950505050505050505050565b6000604051905081810181811067ffffffffffffffff8211171561235b57600080fd5b8060405250919050565b600067ffffffffffffffff82111561237c57600080fd5b601f19601f8301169050602081019050919050565b6000819050602082019050919050565b600081519050919050565b600081519050919050565b600081519050919050565b6000602082019050919050565b600082825260208201905092915050565b600082825260208201905092915050565b600082825260208201905092915050565b600061240d82612422565b9050919050565b600061ffff82169050919050565b600073ffffffffffffffffffffffffffffffffffffffff82169050919050565b6000819050919050565b82818337600083830152505050565b60005b8381101561247957808201518184015260208101905061245e565b83811115612488576000848401525b50505050565b6000601f19601f8301169050919050565b6124a881612414565b81146124b357600080fd5b50565b6124bf81612442565b81146124ca57600080fd5b5056fea365627a7a7231582018aa1858051048cb0a95b0912b6b19e8b16bbd93e44f6db78d709f8a2d729a7a6c6578706572696d656e74616cf564736f6c63430005100040",
  "source": "pragma solidity >=0.4.22 <0.9.0;\npragma experimental ABIEncoderV2;\n\ncontract Marketplace {\n\n    uint256 public offerCount;\n\n    struct Property {\n        uint id;\n        string offerTitle;\n        string offerDescription;\n        string addressLocation;\n        string propertyType;\n        string features;\n\n        uint16 price;\n        uint16 squareFootage;\n\n        address payable ownerAddress;\n    }\n\n    mapping(uint => Property) public properties;\n\n    event propertyAdded(\n        uint id,\n        string offerTitle,\n        string offerDescription,\n        string addressLocation,\n        string propertyType,\n        string features,\n        uint16 price,\n        uint16 squareFootage,\n        address payable ownerAddress\n    );\n\n    event propertyBought(\n        uint id,\n        string offerTitle,\n        string offerDescription,\n        string addressLocation,\n        string propertyType,\n        string features,\n        uint16 price,\n        uint16 squareFootage,\n        address payable ownerAddress\n    );\n\n    constructor() public {\n        offerCount = 0;\n    }\n\n    function sellProperty(\n        string memory _offerTitle,\n        string memory _offerDescription,\n        string memory addressLocation,\n        string memory _propertyType,\n        string memory _features,\n        uint16 _price,\n        uint16 _squareFootage\n    ) public {\n        require(_price > 0);\n        require(_squareFootage > 0);\n\n        offerCount++;\n\n        properties[offerCount] = Property(\n            offerCount,\n            _offerTitle,\n            _offerDescription,\n            addressLocation,\n            _propertyType,\n            _features,\n            _price,\n            _squareFootage,\n            msg.sender\n        );\n        emit propertyAdded(\n            offerCount,\n            _offerTitle,\n            _offerDescription,\n            addressLocation,\n            _propertyType,\n            _features,\n            _price,\n            _squareFootage,\n            msg.sender\n        );\n    }\n\n    function buyProperty(uint _propertyId) public payable {\n        Property memory _property = properties[_propertyId];\n        require(msg.value >= _property.price);\n        address(_property.ownerAddress).transfer(msg.value);\n        _property.ownerAddress = msg.sender;\n        emit propertyBought(\n            _propertyId,\n            _property.offerTitle,\n            _property.offerDescription,\n            _property.addressLocation,\n            _property.propertyType,\n            _property.features,\n            _property.price,\n            _property.squareFootage,\n            msg.sender\n        );\n        delete properties[_propertyId];\n        offerCount--;\n    }\n\n    function getOfferCount() public view returns (uint256) {\n        return offerCount;\n    }\n\n    function getMyProperties() public returns (Property[] memory) {\n        Property[] memory myProps = new Property[](offerCount);\n\n        for(uint i = 0; i < offerCount; i++) {\n            if (properties[i].ownerAddress == msg.sender) {\n                myProps[i] = properties[i];\n            }\n        }\n\n        return myProps;\n    }\n\n    function getProperty(uint _id) public returns (Property memory) {\n        Property memory prop = properties[_id];\n        return prop;\n    }\n\n    function getProperties() public returns (Property[] memory) {\n        Property[] memory props = new Property[](offerCount);\n\n        for(uint i = 0; i < offerCount; i++) {\n            props[i] = properties[i];\n        }\n\n        return (props);\n    }\n\n//    function getProperty(uint _id) public returns (\n//        uint id,\n//        string memory offerTitle,\n//        string memory offerDescription,\n//        string memory addressLocation,\n//        string memory propertyType,\n//        string memory features,\n//        uint16 price,\n//        uint16 squareFootage,\n//        address ownerAddress\n//    ) {\n//        Property memory p = properties[_id];\n//        return (\n//            p.id,\n//            p.offerTitle,\n//            p.offerDescription,\n//            p.addressLocation,\n//            p.propertyType,\n//            p.features,\n//            p.price,\n//            p.squareFootage,\n//            p.ownerAddress\n//        );\n//    }\n\n//    function getProperties() public returns (\n//        uint[] idArray,\n//        string[] offerTitleArray,\n//        string[] offerDescriptionArray,\n//        string[] addressLocationArray,\n//        string[] propertyTypeArray,\n//        string[] featuresArray,\n//        uint16[] priceArray,\n//        uint16[] squareFootageArray,\n//        address[] ownerAddressArray\n//    ) {\n//        Property memory p = properties[_id];\n//        return (\n//        p.id,\n//        p.offerTitle,\n//        p.offerDescription,\n//        p.addressLocation,\n//        p.propertyType,\n//        p.features,\n//        p.price,\n//        p.squareFootage,\n//        p.ownerAddress\n//        );\n//    }\n\n//    function getPropertiesId() public view returns (uint[] memory) {\n//        uint[] memory ids = new uint[](offerCount);\n//\n//        for(uint i = 0; i < offerCount; i++) {\n//            ids[i] = properties[i].id;\n//        }\n//\n//        return (ids);\n//    }\n\n//    function getPropertiesTitle() public view returns (string[] memory) {\n//        string[] memory titles = new string[](offerCount);\n//\n//        for(uint i = 0; i < offerCount; i++) {\n//            titles[i] = properties[i].offerTitle;\n//        }\n//\n//        return (titles);\n//    }\n\n    /* TODO:\n     ? Ajouter une fonction pour lister sa proprit avec ownerAddress\n    */\n\n\n}\n",
  "sourcePath": "/Users/thomfdv/Documents/school/5al-s1/blockchain/Blockchain-ETH-Trading-Dapp/contracts/Marketplace.sol",
  "compiler": {
    "name": "solc",
    "version": "0.5.16+commit.9c3226ce.Emscripten.clang"
  },
  "schemaVersion": "3.3.3",
  "updatedAt": "2021-01-22T22:25:04.949Z",
  "networkType": "ethereum",
  "devdoc": {
    "methods": {}
  },
  "userdoc": {
    "methods": {}
  }
}